:100000000C94C20A0C94EA0A0C94EA0A0C9452105A
:100010000C94EA0A0C946A100C94EA0A0C94EA0A0A
:100020000C94EA0A0C94F7170C94EA0A0C94121D2B
:100030000C94EA0A0C94EA0A0C94471D0C94EA0A00
:100040000C94C9290C94EA0A0C94FC100C94EA0A4A
:100050000C94EA0A0C9412100C94EA0A0C94EA0A22
:100060000C94EA0A0C94EA0AC91CCB1CCD1CCF1CC8
:10007000D11CDD1CDF1CEA1C311E351E391E3F1E43
:10008000451E4C1E511E581E5E1E641E681E6C1EB0
:10009000761E821E8E1E991EB01EBC1ECC1EC81E51
:1000A000A121A521A921AF21B521B921BB21BD21C4
:1000B000BF21C121C521CA21D521DF21E321ED21A5
:1000C000F72101220B2207634236B79BD8A71A39C2
:1000D000685618AEBAAB558C1D3CB7CC5763BD6D96
:1000E000EDFD753EF6177231BF000000803F000144
:1000F000000200030004000504050702308400012B
:10010000FF02FF00FE0101FE00FF02FF01000001EF
:1001100001020203040405050607070809090A0B82
:100120000B0C0D0D0E0F0F101112121314141516C7
:10013000171718191A1B1B1C1D1E1F1F20212223F5
:10014000242525262728292A2B2C2D2E2F2F303108
:1001500032333435363738393A3B3D3E3F40414201
:100160004344454648494A4B4C4D4F5051525355D4
:100170005657595A5B5C5E5F606263646667696A82
:100180006B6D6E707173747677797A7C7D7F0FF00A
:100190000FF00FF0001522304153697F000000007E
:1001A000000000000000000000000000000000004F
:1001B000000000000000000000000000000000003F
:1001C000000000000000000000000000000000002F
:1001D000000000000000000000000000000000001F
:1001E000000000000000000000000000000000000F
:1001F00000000000000000000000000000000000FF
:1002000000000000000000000000000000000000EE
:1002100000000000000000000000000000000000DE
:1002200000000000000000000000000000000000CE
:1002300000000000000000000000000000000000BE
:1002400000000000000000000000000000000000AE
:10025000000000000000000000000000000000009E
:10026000000000000000000000000000000000008E
:10027000000000000000000000000000000000007E
:10028000000000000000000000000000000000006E
:10029000000000000000000000000000151515150A
:1002A0001515151515151514141414141414141407
:1002B0001414141414141414131313131313131306
:1002C0001313131313131313131312121212121204
:1002D0001212121212121212121212121111111102
:1002E00011111111111111111111111111111110FF
:1002F00010101010101010101010101010101010FE
:1003000010100F0F0F0F0F0F0F0F0F0F0F0F0F0FFB
:100310000F0F0F0F0F0F0E0E0E0E0E0E0E0E0E0EF7
:100320000E0E0E0E0E0E0E0E0E0E0D0D0D0D0D0DF3
:100330000D0D0D0D0D0D0D0D0D0D0D0D0D0D0D0CEE
:100340000C0C0C0C0C0C0C0C0C0C0C0C0C0C0C0CED
:100350000C0C0C0C0B0B0B0B0B0B0B0B0B0B0B0BE9
:100360000B0B0B0B0B0B0B0B0B0B0B0A0A0A0A0AE2
:100370000A0A0A0A0A0A0A0A0A0A0A0A0A0A0A0ADD
:100380000A0A0909090909090909090909090909DB
:10039000090909090909090909080808222222226C
:1003A0002221212121212121212121212020202040
:1003B00020202020202020201F1F1F1F1F1F1F1F45
:1003C0001F1F1F1F1E1E1E1E1E1E1E1E1E1D1D1D4C
:1003D0001D1D1D1D1D1D1D1D1D1C1C1C1C1C1C1C54
:1003E0001C1C1C1C1C1C1B1B1B1B1B1B1B1B1B1B57
:1003F0001B1B1A1A1A1A1A1A1A1A1A1A191919195F
:100400001919191919191919191818181818181863
:100410001818181818181717171717171717171766
:10042000161616161616161616161616161615156E
:100430001515151515151515151515141414141471
:100440001414141414141414141413131313131372
:100450001313131312121212121212121212121278
:100460001212121111111111111111111111111179
:10047000111110101010101010101010101010107A
:1004800010100F0F0F0F0F0F0F0F0F0F0F0E0E0E7D
:100490000E0E0E0E0E0E0E0E0E0E0E0E30303030F4
:1004A000302F2F2F2F2F2F2E2E2E2E2E2E2E2E2D65
:1004B0002D2D2D2D2D2D2D2D2C2C2C2C2C2C2B2B76
:1004C0002B2B2B2B2B2B2B2A2A2A2A2A2A2A2A2A85
:1004D0002929292929292828282828282828282797
:1004E00027272727272727272726262626262625A4
:1004F00025252525252525252524242424242424B3
:1005000024242323232323232322222222222222C0
:1005100022222221212121212121212121202020CB
:100520002020201F1F1F1F1F1F1F1F1F1F1F1E1EDA
:100530001E1E1E1E1D1D1D1D1D1D1D1D1D1D1D1CE8
:100540001C1C1C1C1C1C1C1C1C1C1B1B1B1B1B1BF1
:100550001B1A1A1A1A1A1A1A1A1A1A1A19191919FE
:100560001919191919191918181818181818171706
:100570001717171717171717171716161616161611
:100580001616161616161515151515151514141418
:10059000141414141414141414131313414140406C
:1005A000404040403F3F3F3F3F3E3E3E3E3E3E3D5F
:1005B0003D3D3D3D3D3C3C3C3C3C3C3B3B3B3B3B7B
:1005C0003B3A3A3A3A3A3A39393939393938383896
:1005D00038383837373737373736363636363635B0
:1005E00035353535353534343434343433333333C9
:1005F00033333232323232323231313131313130E1
:1006000030303030302F2F2F2F2F2F2F2E2E2E2EF9
:100610002E2E2E2D2D2D2D2D2D2C2C2C2C2C2C2C0E
:100620002B2B2B2A2A2A2A2A2A2A2929292929292D
:100630002928282828282828272727272727272642
:100640002626262626262525252525252524242457
:10065000242424242323232323232323222222226A
:10066000222222212121212121212120202020207C
:1006700020201F1F1F1F1F1F1F1F1E1E1E1E1E1E8E
:100680001E1E1D1D1D1D1D1D1D1C1C1C1C1C1C1C9F
:100690001C1B1B1B1B1B1B1B1B1A1A1A53535252CE
:1006A0005252525251515150505050504F4F4F4E44
:1006B0004E4E4E4E4E4D4D4D4C4C4C4C4C4C4B4B6F
:1006C0004B4B4B4B4A4A4A49494949494948484892
:1006D00047474747474746464645454545454544BC
:1006E00044444343434343434342424241414141E3
:1006F00041414040403F3F3F3F3F3F3F3E3E3E3D08
:100700003D3D3D3D3D3C3C3C3C3B3B3B3B3B3B3A2C
:100710003A3A3A3A3A3A393939383838383838384A
:10072000373737363636363636363535353534346E
:10073000343434343333333332323232323232318E
:10074000313130303030303030302F2F2F2E2E2EB0
:100750002E2E2E2E2D2D2D2D2C2C2C2C2C2C2C2BCE
:100760002B2B2B2A2A2A2A2A2A2A2A2929292929EB
:100770002929282828282727272727272727262603
:100780002626252525252525252424242423232321
:10079000232323232322222222212121696968681D
:1007A00068676767676767666665656564646463ED
:1007B00063636262626262626161616060605F5F26
:1007C0005F5E5E5E5D5D5D5D5D5D5C5C5C5B5B5B5D
:1007D0005A5A5A5959595858585858585757575695
:1007E00056565555555554545454545453535352C6
:1007F0005252515151505050504F4F4F4F4F4F4EFA
:100800004E4E4D4D4D4C4C4C4C4B4B4B4A4A4A4A2C
:100810004A4A4A4949494848484747474746464659
:100820004545454545454544444443434343424289
:1008300042414141404040404040403F3F3F3F3EB9
:100840003E3E3D3D3D3D3C3C3C3C3C3C3C3B3B3BE3
:100850003B3A3A3A3939393938383838373737370F
:100860003737373636363635353535343434333335
:10087000333332323232323232323131313130305E
:1008800030302F2F2F2F2E2E2E2D2D2D2D2D2D2D87
:100890002D2C2C2C2C2B2B2B2B2A2A2A7F7F7E7E57
:1008A0007E7D7D7D7C7C7C7B7B7A7A7A7979797898
:1008B00078787777777676767575757474747373E0
:1008C000737272727171717070706F6F6F6E6E6E25
:1008D0006D6D6D6C6C6C6B6B6B6A6A6A696969686B
:1008E00068686767676766666665656564646463AC
:1008F0006363626262616161616060605F5F5F5EED
:100900005E5E5D5D5D5C5C5C5C5B5B5B5A5A5A592C
:100910005959595858585757575656565655555568
:1009200054545453535353525252515151515050A5
:10093000504F4F4F4E4E4E4E4D4D4D4C4C4C4C4BE0
:100940004B4B4A4A4A4A4949494948484847474718
:10095000474646464545454544444444434343424F
:1009600042424241414141404040403F3F3F3E3E84
:100970003E3E3D3D3D3D3C3C3C3C3B3B3B3B3A3AB7
:100980003A3A3939393938383837373737363636E9
:1009900036353535353434343433333300000000E4
:1009A0000000000000000000000000000000000047
:1009B0000000000000000000000000000000000037
:1009C0000000000000000000000000000000000027
:1009D0000000000000000000000000000000000017
:1009E0000000000000000000000000000000000007
:1009F00000000000000000000000000000000000F7
:100A000000000000000000000000000000000000E6
:100A100000000000000000000000000000000000D6
:100A200000000000000000000000000000000000C6
:100A300000000000000000000000000000000000B6
:100A400000000000000000000000000000000000A6
:100A50000000000000000000000000000000000096
:100A60000000000000000000000000000000000086
:100A70000000000000000000000000000000000076
:100A80000000000000000000000000000000000066
:100A9000000000000000000000000000EBEBEBECA9
:100AA000ECECECECEDEDEDEDEEEEEEEEEEEFEFEF6F
:100AB000EFEFF0F0F0F0F0F1F1F1F1F2F2F2F2F22A
:100AC000F3F3F3F3F3F4F4F4F4F4F5F5F5F5F5F6E4
:100AD000F6F6F6F6F7F7F7F7F7F8F8F8F8F8F8F9A2
:100AE000F9F9F9F9FAFAFAFAFAFBFBFBFBFBFBFC62
:100AF000FCFCFCFCFDFDFDFDFDFDFEFEFEFEFEFF23
:100B0000FFFFFFFFFF0000000000000101010101E5
:100B100001020202020202030303030303040404AA
:100B20000404040505050505050606060606060671
:100B30000707070707070808080808080809090938
:100B40000909090A0A0A0A0A0A0A0B0B0B0B0B0B02
:100B50000B0C0C0C0C0C0C0C0D0D0D0D0D0D0D0ECD
:100B60000E0E0E0E0E0E0F0F0F0F0F0F0F0F101099
:100B70001010101010101111111111111112121268
:100B80001212121212131313131313131313141438
:100B9000141414141414151515151515DEDEDFDFE5
:100BA000DFE0E0E0E1E1E1E2E2E3E3E3E4E4E4E525
:100BB000E5E5E5E6E6E7E7E7E8E8E8E9E9E9EAEABE
:100BC000EAEBEBEBECECECECEDEDEEEEEEEEEFEF5A
:100BD000EFF0F0F0F1F1F1F2F2F2F3F3F3F3F4F4F9
:100BE000F4F5F5F5F6F6F6F7F7F7F7F8F8F8F9F99A
:100BF000F9FAFAFAFAFBFBFBFBFCFCFDFDFDFDFE3E
:100C0000FEFEFEFFFFFFFF000000010101020202E5
:100C1000020303030304040405050505060606068E
:100C20000707070708080809090909090A0A0A0A3B
:100C30000B0B0B0C0C0C0C0D0D0D0D0D0E0E0E0EEA
:100C40000F0F0F101010101011111111121212129B
:100C50001213131314141414141515151515161650
:100C60001616161717171818181818191919191908
:100C70001A1A1A1A1B1B1B1B1B1C1C1C1C1C1C1DC0
:100C80001D1D1D1D1E1E1E1E1F1F1F1F1F1F20207E
:100C9000202020212121212121222222D0D0D1D285
:100CA000D2D3D3D3D4D5D5D5D6D6D7D7D8D8D9D9EA
:100CB000DADADBDBDCDCDCDDDEDEDEDFDFE0E0E160
:100CC000E1E2E2E3E3E4E4E4E5E6E6E6E7E7E8E8D8
:100CD000E9E9E9EAEAEBEBECECEDEDEDEEEEEFEF56
:100CE000F0F0F1F1F1F2F2F3F3F4F4F4F5F5F5F6D6
:100CF000F7F7F7F8F8F8F9F9FAFAFBFBFBFCFCFD5B
:100D0000FDFDFEFEFEFFFF000000010202020303E4
:100D1000030404050505060606070708080809096F
:100D2000090A0A0B0B0B0C0C0C0D0D0D0E0E0E0F01
:100D30000F0F101011111112121313131314141496
:100D40001515161616171717171818191919191A2D
:100D50001A1A1B1B1C1C1C1C1D1D1D1E1E1E1F1FCA
:100D60001F20202021212121222222232323242469
:100D7000242425252525262627272727282828280F
:100D80002929292A2A2A2A2B2B2B2B2C2C2C2D2DB6
:100D90002D2D2E2E2E2E2F2F2F303030BFC0C1C123
:100DA000C2C3C3C4C4C5C6C6C7C8C8C9CACACBCCD7
:100DB000CCCDCDCECFCFD0D1D1D2D2D3D4D4D5D625
:100DC000D7D7D8D8D9DADADBDBDCDDDDDEDEDFE071
:100DD000E0E1E1E2E3E3E4E4E5E6E6E7E7E8E8E9C9
:100DE000EAEBEBECECEDEDEEEFEFF0F0F1F1F2F31E
:100DF000F3F4F4F5F5F6F6F7F7F8F9F9FAFAFBFB80
:100E0000FCFCFDFDFEFEFFFF0001020203030404E3
:100E1000050506060707080809090A0A0B0B0C0C4A
:100E20000D0D0E0E0F0F10101111121212131314BC
:100E3000141515161717181819191A1A1A1B1B1C2E
:100E40001C1D1D1E1E1F1F1F2020212122222223A8
:100E50002324242525252626272728282829292A2A
:100E60002A2B2B2C2C2D2D2D2E2E2F2F2F303031A9
:100E70003131323233333334343535353636363733
:100E8000373838383939393A3A3A3B3B3C3C3C3DC3
:100E90003D3D3E3E3E3F3F3F40404041ADAEAFB0A6
:100EA000B0B2B2B3B4B5B5B6B7B8B9B9BBBBBCBDD7
:100EB000BEBFBFC1C1C2C3C4C5C5C6C7C8C8C9CAF1
:100EC000CBCCCCCDCECFD0D0D1D2D3D4D4D5D6D715
:100ED000D7D8D9DADBDBDCDDDDDFDFE0E1E1E2E33F
:100EE000E4E5E5E6E7E7E8E9EAEAEBECECEDEEEF6E
:100EF000F0F0F1F2F2F3F4F4F5F6F7F8F8F9F9FAA4
:100F0000FBFBFCFDFDFEFFFF0001020303040505E2
:100F10000607070808090A0A0B0C0C0D0E0E0F1025
:100F20001011121213141415161617171818191970
:100F30001A1B1B1C1D1D1E1F1F20212121222323C4
:100F4000242525262727272829292A2A2B2C2C2C1B
:100F50002D2E2E2F3030303132323334343435367A
:100F60003637373838393A3A3A3B3B3C3C3D3D3EE0
:100F70003F3F3F404141414243434344454545464D
:100F8000474747484949494A4B4B4B4C4C4C4D4EBF
:100F90004E4E4F5050505151525252539798999A29
:100FA0009B9D9E9E9FA1A2A3A4A5A6A7A8A9AAAC0B
:100FB000ACADAEB0B1B1B2B4B5B6B6B8B9BABBBCEF
:100FC000BDBEBFC0C1C2C3C4C4C6C7C8C9C9CBCCDB
:100FD000CDCECED0D1D2D3D3D4D6D7D7D8D9DADCD0
:100FE000DCDDDEDFE0E1E1E3E4E5E6E6E7E8E9EBCE
:100FF000EBECEDEEEFEFF0F1F2F3F4F5F6F7F8F9D4
:10100000F9FAFBFCFDFEFEFF0001020304050607E2
:101010000708090A0B0C0C0D0E0F101111121314F6
:101020001515161718191A1A1B1C1D1D1E1F1F2017
:101030002122232424252627282929292A2B2C2D3F
:101040002D2E2F3031323232333435363737373870
:10105000393A3B3C3C3C3D3E3F40404141424344A9
:1010600045454546474849494A4A4B4C4C4D4E4FE9
:101070004F4F505152525354545555565758585833
:10108000595A5A5B5C5D5D5D5E5E5F606161626284
:10109000626364656566676767686869818284857D
:1010A0008688898A8B8D8E8F919293949697989A41
:1010B0009B9C9D9FA0A1A2A4A5A6A7A9AAABACAEEC
:1010C000AFB0B1B2B4B5B6B7B8BABBBCBDBEC0C1A3
:1010D000C2C3C4C6C7C8C9CACBCDCECFD0D1D2D463
:1010E000D5D6D7D8D9DADBDDDEDFE0E1E2E3E4E62E
:1010F000E7E8E9EAEBECEDEEEFF0F2F3F4F5F6F702
:10110000F8F9FAFBFCFDFEFF0001030405060708E1
:10111000090A0B0C0D0E0F101112131415161718C7
:10112000191A1B1C1D1E1F202122232324252627BC
:1011300028292A2B2C2D2E2F3031323233343536BC
:101140003738393A3B3C3C3D3E3F404142434344C3
:101150004546474849494A4B4C4D4E4F4F505152D6
:101160005354545556575858595A5B5C5C5D5E5FF2
:10117000606061626363646566676768696A6A6B19
:101180006C6D6D6E6F707071727273747575767749
:101190007778797A7A7B7C7C7D7E7E7F2100230044
:1011A0002500270029002C002E00310034003700D4
:1011B0003A003E004100450049004E0052005700F1
:1011C0005C00620068006E0075007B0083008B008D
:1011D00093009C00A500AF00B900C400D000DC0063
:1011E000E900F70006011501260137014A015D01FA
:1011F000720188019F01B801D201EE010B022A029F
:101200004B026E029302BA02E40210033F03700322
:10121000A403DC03170455049704DD0427057505B2
:10122000C80520067D06E0064907B8072D08A9086D
:101230002D09B9094D0AEA0A900B400CFA0CC00DB1
:10124000910E6F0F5A1053115B1272139A14D4152A
:1012500020178018F519801B231DDE1EB420A6223E
:10126000B524E4263429A72B402E0031EA33003779
:10127000453ABC3D68414C456B49C84D68524F5793
:10128000805C0062D467006E8A74797BD082978A12
:10129000D592909BD0A49DAEFFB8FFC3020202027C
:1012A0000202020202020203030303030303030315
:1012B00003030303040404040404040405050505EE
:1012C00005050606060606070707070708080809B2
:1012D00009090A0A0A0B0B0B0C0C0D0D0E0E0F0F51
:1012E000101111121313141516161718191A1B1CA6
:1012F0001D1E202122242526282A2B2D2F3133356F
:1013000037393B3E404345484B4E5154585B5F6331
:10131000676B6F74787D82888D93999F40404141BF
:10132000414242424343444444454545464647477B
:101330004748484849494A4A4A4B4B4C4C4D4D4D09
:101340004E4E4F4F4F50505151525253535354548D
:10135000555556565757585859595A5A5B5B5B5C06
:101360005C5D5D5E5F5F6060616162626363646477
:101370006565666767686869696A6A6B6C6C6D6DDC
:101380006E6F6F7070717272737374757576777734
:101390007879797A7B7B7C7D7D7E7F7F808181827D
:1013A000838484858686878889898A8B8C8C8D8EB8
:1013B0008F8F9091929393949596979798999A9BE3
:1013C0009C9C9D9E9FA0A1A2A2A3A4A5A6A7A8A9FC
:1013D000AAABABACADAEAFB0B1B2B3B4B5B6B7B803
:1013E000B9BABBBCBDBEBFC0C1C2C3C4C5C6C8C9F3
:1013F000CACBCCCDCECFD0D2D3D4D5D6D7D8DADBCA
:10140000DCDDDEE0E1E2E3E4E6E7E8E9EBECEDEF8A
:10141000F0F1F3F4F5F6F8F9FBFCFDFF0000050030
:101420000E001B002E004D007B00C3003201DD01C9
:10143000E4027904E806A80A6F10541900000008B5
:10144000001100190022002A0033003B0044004C28
:101450000055005D0066006E0077FF7F87081C0561
:101460001003D7011B01AA0067003E0026001800E8
:101470000F000A000700050004000300CC0C7707EA
:101480005B048B027D01DF0083004E002F001C00F7
:1014900012000C0008000600050004009819410E17
:1014A000F2076E047A026301C80071004100270050
:1014B00018000F000B000800070006000004080CCD
:1014C0001014181C2023272B2F33373B3F3B373377
:1014D0002F2B2723201C1814100C080400FCF8F4F0
:1014E000F0ECE8E4E0DDD9D5D1CDC9C5C1C5C9CDA1
:1014F000D1D5D9DDE0E4E8ECF0F4F8FC0000000020
:1015000000000000000000000000000000000000DB
:101510000000000000000000000000007F7F7F7FCF
:101520007F7F7F7F7F7F7F7F7F7F7F7F7F7F7F7FCB
:101530007F7F7F7F7F7F7F7F7F7F7F7F0B0D11137B
:10154000171D1F25292B2F353B3D4347494F535925
:101550006165676B6D717F83898B95979DA3A7AD3F
:10156000B3B5BFC1C5C7D3DFE3E5E9EFF1FB00EBDE
:10157000DED0BFAD9781001522304153697F0FF057
:10158000AA29AE2911241FBECFEFD8E0DEBFCDBF00
:1015900011E0A0E0B1E0E0E2FFE502C005900D92AD
:1015A000AA37B107D9F725E0AAE7B1E001C01D923B
:1015B000A535B207E1F715E1C2E8D5E104C02297ED
:1015C000FE010E949E2DC038D107C9F70E94B6299E
:1015D0000C94832F0C940000FC0110821382128261
:1015E0006483618308950895FC0124813181822FF1
:1015F00090E0831B910997FF03C091958195910914
:10160000408105973CF0411105C081E08083138241
:1016100012820CC0442351F082819381860F911D68
:1016200093838283803D974008F0108280818823D5
:1016300029F0231719F0218381E0089580E00895AF
:101640000C94592F0C94412FEF92FF920F931F93FC
:10165000CF93DF93EC0188819981009711F00E946C
:10166000C7298E0100521F4FC8010E941A127E0125
:1016700081EDE80EF11CE114F10449F00E151F058F
:1016800031F005501109C8010E947213F7CF8E0185
:10169000035B1F4F51F0E016F10639F082E4E81ABF
:1016A000F108C7010E94AB12F6CF7E0182E3E80E7B
:1016B000F11CE114F10449F00E151F0531F0095039
:1016C0001109C8010E946829F7CF8E010C5E1F4FD7
:1016D00051F0E016F10639F085E0E81AF108C7018B
:1016E0000E94F30AF6CF229649F00C171D0731F03D
:1016F00009501109C8010E941629F7CFDF91CF9137
:101700001F910F91FF90EF9008951F93CF93DF9358
:10171000EC0180918701680F603420F460938701A9
:1017200010E00EC0862F90E026E0959587952A95CB
:10173000E1F7182F20E4829F60191124609387013C
:10174000612FCE01835B9F4F0E940113612FCE0159
:1017500081579F4F0E940113612FCE018F529F4FDF
:101760000E941114612FCE018A529F4F0E941114C2
:10177000612FCE0185529F4F0E941114612FCE011F
:1017800080529F4FDF91CF911F910C946C12BF92AA
:10179000CF92DF92EF92FF920F931F93CF93DF933D
:1017A0007C01B62EEC01649600E010E06C0184EE42
:1017B000C80ED11CF801E857FE4F80818C836B2D39
:1017C000CE010E94F40A882321F0D6018C9188234F
:1017D00081F00F5F1F4F25960630110559F7DF91F5
:1017E000CF911F910F91FF90EF90DF90CF90BF901E
:1017F0000895F70180819181DC01ED91FC910480D5
:10180000F581E02D4C81602F0995E3CFE0ECF0E00D
:101810008081826080837093C5006093C400E1EC96
:10182000F0E0808180618083808188608083808116
:101830008068808380818F7D808308958091C0003F
:1018400085FFFCCF6093C6000895FF920F931F930E
:10185000CF93DF93EC0130E4F32E8C010B511F4F3B
:101860009091960180919701981312C080919501F3
:101870008823C9F18881998160919501DC01ED91FE
:10188000FC910484F585E02D0995109295012BC0FB
:1018900088819981E0919601F0E0E856FE4F6081E1
:1018A000DC01ED91FC910284F385E02D0995F801AE
:1018B0008081803849F4E0919601F0E0E856FE4FCF
:1018C0006081CE010E941E0C809196018F5F8093F3
:1018D000960180919601803410F010929601FA944E
:1018E00009F0BECFC3CFDF91CF911F910F91FF9031
:1018F0000895FC01EB51FF4FDC01AA51BF4F6081FD
:101900008C91682B8FEF93E00C94692F4F925F922C
:101910006F927F928F929F92AF92BF92CF92DF92FF
:10192000EF92FF920F931F93CF93DF938C01762E4C
:10193000EC01E296E12CF12C5C0184EEA80EB11CC6
:10194000680195EEC90ED11CD801AF52BF4F4D01B1
:1019500040E8442E53E0552E6E2CF701E257FE4F1F
:1019600080818883672DCE010E946929882329F010
:10197000F5018081882309F441C0672DCE010E94C2
:101980008029882309F1D5018C9181110DC0F801BE
:1019900080819181DC01ED91FC910190F081E02D3D
:1019A0004881662D099510C061100EC08881813074
:1019B00059F4F6019081903869F5F6011082D4014E
:1019C0005C92C8010E94790CBFEFEB1AFB0A2996C2
:1019D000E3E0EE16F10409F0BFCFDF91CF911F9144
:1019E0000F91FF90EF90DF90CF90BF90AF909F90BE
:1019F0008F907F906F905F904F900895D8018D9158
:101A00009C91DC01ED91FC910280F381E02D6E2D23
:101A10000995B3CFF6014082D4018C93D2CF6F9257
:101A20007F928F929F92AF92BF92CF92DF92EF926E
:101A3000FF920F931F93CF93DF938C01762EEC01CF
:101A40002296E12CF12C5C0184EEA80EB11C6801F9
:101A5000A6EECA0ED11C4801BDE48B0E911CF70105
:101A6000EE0FFF1FEF56FE4F808191819A8389838D
:101A7000672DCE010E942429882349F1F501808138
:101A800081110EC0D8018D919C91DC01ED91FC91EA
:101A90000680F781E02D288548816E2D099517C0B5
:101AA000E11015C06881F6016083D8018D919C9189
:101AB000DC01ED91FC910084F185E02D0995F601A2
:101AC0006081C4010E94AC12C8010E94790CFFEF32
:101AD000EF1AFF0A299682E0E816F10409F0BFCF59
:101AE000DF91CF911F910F91FF90EF90DF90CF90FA
:101AF000BF90AF909F908F907F906F9008952A9A9B
:101B0000229A8CB580618CBD8CB580648CBD239A83
:101B1000259A8DB581608DBD8CB58D7F8CBD8CB5C2
:101B20008E7F8CBD8CB58F7D8CBD8CB5877F8CBD39
:101B30008CB58B7F8CBD08956EBD0DB407FEFDCFB7
:101B400008950F931F93CF93DF9300D0CDB7DEB7E7
:101B50008C012A98660F60642A8349830E949C0D39
:101B60004981642FC8010E949C0D2A81622FC801FF
:101B70000E949C0D2A9A0F900F90DF91CF911F9198
:101B80000F9108950F931F93CF93DF9300D01F926F
:101B9000CDB7DEB78C012A98660F60642A833B8339
:101BA00049830E949C0D4981642FC8010E949C0DAD
:101BB0002A81622FC8010E949C0D3B81632FC801BE
:101BC0000E949C0D2A9A0F900F900F90DF91CF9159
:101BD0001F910F9108954F925F926F927F928F9213
:101BE0009F92AF92BF92CF92DF92EF92FF920F93AC
:101BF0001F93CF93DF93CDB7DEB72A970FB6F89434
:101C0000DEBF0FBECDBF8C01FC0171836083F894F1
:101C10000E947F0DF12C28E04AE06F2DC8010E9440
:101C2000A10D20E030E040E06F2DC8010E94C20D00
:101C3000F394F3E0FF12EFCFC12CD12CE12CF12C67
:101C4000E7E8AE2EF5E0BF2EE0927C0080917C00AC
:101C5000806480937C0080917C00806280937C0013
:101C6000A0927A0080917A00806480937A008091BB
:101C70007A0086FDFCCF60917900F701E857FE4FAE
:101C80006083CE0101960E94EC0AD801AC0DBD1D07
:101C9000FE01319654968B2D01900D928A95E1F7B5
:101CA000CE0101960E94F30A2FEFE21AF20A35E004
:101CB000C30ED11C86E0E816F10431F610927C00C8
:101CC00080917C00806480937C0080917C008062A5
:101CD00080937C008FE880937A0080917A00806402
:101CE00080937A0080E090E0C12CD12C7601C394DF
:101CF00020E030E0DC01A850BF4FFD01E20FF31FF0
:101D000044918AB02601370104C0440C551C661C5E
:101D1000771C4A95D2F7B301A20140955095609582
:101D20007095912CA12CB12C482159216A217B213D
:101D30004AB94491FBB13601470104C0660C771CD7
:101D4000881C991C4A95D2F7B401A3014F2B4BB9BB
:101D50002F5F3F4F2230310581F602968430910586
:101D600039F6209828982198299856985E98539A81
:101D70005B98D3B0D0946D2D617060938E0140ED6F
:101D800057E0CE0101960E945C2989E0FE01319660
:101D9000D801D29601900D928A95E1F7CE01019675
:101DA0000E946829F80182A998012C513F4F7901BE
:101DB000813011F4F9018083D1FA662760F96093CC
:101DC0008F0140ED57E0CE0101960E945C2989E029
:101DD000FE013196D801DB9601900D928A95E1F7CC
:101DE000CE0101960E94682969B1609566FB66275D
:101DF00060F96093900140ED57E0CE0101960E949A
:101E00005C2989E0FE013196D801AC5BBF4F01909F
:101E10000D928A95E1F7CE0101960E946829809182
:101E20006B00816080936B0080916B008260809377
:101E30006B00D89A809168008160809368008091DF
:101E40006D00846080936D0080916D00806180934F
:101E50006D0080916D00806280936D0080916D00B7
:101E6000806480936D0080916D00806880936D0028
:101E7000DA9A8091680084608093680078948FEF8C
:101E800093E00E94512F282F2078F801EB51FF4F4B
:101E900020838FEF93E02A870E94512F682F6F7065
:101EA0006801F6EECF0ED11CF6016083F701808148
:101EB0002A858823D1F081E0F8018187EF52FF4F16
:101EC000203809F083E08083F801EA52FF4F108246
:101ED00035961082C801835B9F4F0E94AC12F601B9
:101EE0006081C80102960E9417292A960FB6F894BD
:101EF000DEBF0FBECDBFDF91CF911F910F91FF903D
:101F0000EF90DF90CF90BF90AF909F908F907F9099
:101F10006F905F904F9008950F931F93CF93DF932F
:101F20008C01FC01E35BFF4FC081D1818091810175
:101F300090918201C817D90751F09E0142E160E0FB
:101F4000C8010E94C20DD0938201C0938101F801A3
:101F5000E157FF4FC081D18180918301909184012D
:101F6000C817D90751F09E0142E161E0C8010E9403
:101F7000C20DD0938401C0938301F801EF52FF4F4B
:101F80008081982F9D7F913019F4C2E0D0E002C08B
:101F9000C0E0D0E08250823008F4C160F801EA521B
:101FA000FF4F8081982F9D7F913009F4C860825047
:101FB000823008F4C460F801E552FF4F808181301F
:101FC00091F0823091F0833089F4809180018F5FAD
:101FD000833018F48093800102C0109280018091B8
:101FE0008001823010F4C06201C0C064F801E05288
:101FF000FF4F80818111C0618091850190918601A0
:10200000C817D90751F09E0142E162E0C8010E9461
:10201000C20DD0938601C0938501DF91CF911F91AE
:102020000F9108951F920F920FB60F9211248F9364
:10203000EF93FF93E0917F01F0E080917900E85702
:10204000FE4F808380917E018F5F8A3018F48093E9
:102050007E0102C010927E01E0917E01F0E0E2512B
:10206000FF4FE491E0937F0180917F0180937C009A
:1020700080917C00806480937C0080917C008062F1
:1020800080937C008FE880937A0080917A0080644E
:1020900080937A00FF91EF918F910F900FBE0F9078
:1020A0001F9018951F920F920FB60F9211248F93C5
:1020B0009F9383B18095982F917090938E01869510
:1020C000817080938F019F918F910F900FBE0F9021
:1020D0001F9018951F920F920FB60F921124EF9236
:1020E000FF920F931F932F933F934F935F936F93A1
:1020F0007F938F939F93AF93BF93CF93DF93EF9390
:10210000FF93F9B0F0940F2D10E0C80126E09595EB
:1021100087952A95E1F7817080939001CCE7D1E013
:10212000AAE7B1E068EF70E020E030E0F901E450A8
:10213000FF4FE490EF208881E81609F43CC0FB01D2
:10214000849131964491F80102C0F595E7958A95FE
:10215000E2F7CF0181709927880F991F880F991F87
:10216000F80102C0F595E7954A95E2F7AF01417095
:102170005527E3E0440F551FEA95E1F7842B952B93
:102180004C9150E05595479555954795842B952B47
:102190008C93FC01E250FF4F8491F901EE0FFF1F79
:1021A000EF56FE4F40815181481B510987FD5395E1
:1021B00051834083E8822F5F3F4F219611966E5FD7
:1021C0007F4F2230310509F0B1CFFF91EF91DF91C0
:1021D000CF91BF91AF919F918F917F916F915F91BF
:1021E0004F913F912F911F910F91FF90EF900F9082
:1021F0000FBE0F901F9018951F920F920FB60F925F
:1022000011248F939F93EF93FF938091C00080914F
:10221000C600E0919701F0E0E856FE4F8083809180
:1022200097018F5F8093970180919701803410F020
:10223000109297019091970180919601981303C095
:1022400084E080939501FF91EF919F918F910F9082
:102250000FBE0F901F901895FC018FEF9FE79183A1
:102260008083938382839583848384E791E097833B
:102270008683118610861286138614861586089525
:102280000895FC017183608321E025870895FC0196
:102290007383628321E025870895FC01758364833D
:1022A00021E025870895FC017783668321E0258757
:1022B0000895FC0181859285911181950895DC0135
:1022C0001C969C911C9719968C911997913099F4B2
:1022D000282F382F330F330B37FF03C0319521954B
:1022E0003109EFE7F0E0E21BF109E25FFE4FE49114
:1022F0008FE78E1B0DC0E82FF82FFF0FFF0BF7FFA6
:1023000003C0F195E195F109FF27E25FFE4F84914B
:102310001A969C91911181950895FC0181E0848722
:1023200085878385882311F011861086089524E01F
:10233000FC01248721E0258708950F931F93FC015A
:102340008585882309F46CC08485823071F130F46E
:10235000882309F45DC0813041F062C0833009F404
:102360003FC0843009F441C05BC020813181A62F79
:10237000B0E00E94A22D40855185AFEFBFE78D01EF
:10238000041B150B222717FD2095322F60177107AC
:102390008207930728F082E08487B187A08740C036
:1023A000640F751F718760873BC022813381A62F20
:1023B000B0E00E94A22D40855185A481B5818A019B
:1023C0000A1B1B0B222717FD2095322F6017710760
:1023D0008207930708F183E08487B187A0871AC03A
:1023E000848195819187808715C026813781A62FAA
:1023F000B0E00E94A22D408551858A01222717FD59
:102400002095322F601771078207930728F01486F2
:1024100011861086158604C0461B570B51874087CE
:102420001F910F910895FC011082118281E1828336
:10243000138208950895EEE8F1E0E4912E2F20959F
:10244000DC0112963C91129723236E23262B1296C1
:102450002C930895EEE8F1E0E491DC0112968C9162
:102460008E230895EFE8F1E0E4912E2F2095DC0112
:1024700012963C912323B0E16B9FB0011124E62317
:102480002E2BFC0122830895DC01EFE8F1E084911A
:1024900012969C91892382958F700895EF92FF92F6
:1024A0000F93CF93DF931F92CDB7DEB77C01FC0172
:1024B00061831382642F29830E9432122981622F43
:1024C000C7010E941B12F70100830F90DF91CF918B
:1024D0000F91FF90EF9008951F93CF93DF93EC013E
:1024E00089818823F1F08B81860F8B83CE010E9436
:1024F0004412182FCE010E942A1228819B81222388
:1025000021F0911770F0911B03C0981750F0981BA1
:102510009B8381E08227888389818F3F11F08150DE
:102520008983DF91CF911F910895FC01119211923F
:1025300020E1DF01322F1D923A95E9F7FC017296F6
:10254000DF011D922A95E9F7709620E2DF011D92C6
:102550002A95E9F70895089521E030E002C0220F9E
:10256000331F6A95E2F7FC013183208308956F5F82
:1025700021E030E002C0220F331F6A95E2F72150BC
:102580003109FC01318320830895FC01262F8081CD
:102590009181442371F041E050E060E070E004C0BC
:1025A000440F551F661F771F2A95D2F7482B592BCA
:1025B0000FC041E050E060E070E004C0440F551FE0
:1025C000661F771F2A95D2F74095509548235923C7
:1025D000518340830895E0E9F1E0E491860F911D75
:1025E000DC0152968C918E230895DC01E1E9F1E043
:1025F0008491A60FB11D52969C91892382958F706C
:1026000008956F927F928F929F92AF92BF92CF92D6
:10261000DF92EF92FF920F931F93CF93DF937C0192
:102620008C01C0E0D0E0A62EB12C992493948C2E7E
:102630006701CC0EDD1EF60182818823B1F1F8011D
:1026400082A193A18A0D9B1D93A382A3F7014081D0
:1026500051810C2E02C0569547950A94E2F7842FBB
:102660008170682E6C2FC7010E94F512782E6C2F96
:10267000C7010E94EB12F80122A133A16110872D3E
:1026800090E02817390788F0281B390BF80133A38D
:1026900022A3462D4925682DC7010E94C512F601C7
:1026A00082818F3F11F08150828321960E5F1F4FF0
:1026B000C031D10509F0BBCFDF91CF911F910F91B0
:1026C000FF90EF90DF90CF90BF90AF909F908F9052
:1026D0007F906F900895FC01108211821282138204
:1026E000148208950895E3E9F1E0E4912E2F2095F6
:1026F000DC0111963C912323B0E16B9FB0011124C2
:10270000E6232E2BFC0121830895DC01E3E9F1E0AF
:10271000849111969C91892382958F700895E2E9A6
:10272000F1E0E4912E2F2095DC0111963C91119758
:1027300023236E23262B11962C930895E2E9F1E0D2
:10274000E491DC0111968C918E230895CF93DF9351
:10275000EC011A820E949E138883DF91CF91089525
:10276000E2E9F1E0E4912E2F2095DC0113963C91F3
:10277000139723236E23262B13962C930895E2E9B7
:10278000F1E0E491DC0113968C918E230895E3E946
:10279000F1E0E4912E2F2095DC0113963C91232348
:1027A000B0E16B9FB0011124E6232E2BFC012383A3
:1027B0000895AF92BF92CF92EF920F93CF93DF9392
:1027C0001F92CDB7DEB75C01FC0162831482642FD7
:1027D00029830E94C7132981622FC5010E94B0136B
:1027E000602FC5010E9473136E2DC5010E948F13C7
:1027F000F501CC2011F0008301C0E0820F90DF9141
:10280000CF910F91EF90CF90BF90AF900895DC01E2
:10281000E3E9F1E0849113969C91892382958F706E
:102820000895EF92FF920F931F93CF93DF93EC01E4
:102830008A81882361F18C81860F8C830881CE0187
:102840000E948513182FCE010E949E13F82ECE01F0
:102850000E940714E82ECE010E94BF13011303C08B
:102860009C819E1538F40F1112C09C81981778F046
:10287000011305C09C819E199C83F88203C0981B9C
:102880009C8318838A818F3F11F081508A83DF9166
:10289000CF911F910F91FF90EF900895FC018DE76C
:1028A0008083118214821582168210861286118608
:1028B0001486138673836283478308950895FC0109
:1028C000603110F011820895618308951F93CF93B2
:1028D000DF93EC0110E08A819B81DC01ED91FC919A
:1028E0000280F381E02D612F09951F5F103899F761
:1028F000DF91CF911F910895FC01462F683F48F169
:102900006C3F28F46A3F60F4683F21F008956C3F03
:10291000B1F0089581859285019692878187089507
:10292000128611861486138681E0848382819381C6
:10293000DC01ED91FC910480F581E02D09C0148249
:1029400082819381DC01ED91FC910680F781E02D7D
:102950000994603F70F11092DB01603FA9F481E0BF
:10296000858316828FEF80930B0180930A01808507
:10297000882309F4BEC082819381DC01ED91FC9132
:102980000084F185E02DE4CF673F09F0B2C0858176
:10299000882309F4AEC015828085882309F4A9C074
:1029A00082819381DC01ED91FC910484F585E02D19
:1029B000CFCF67FF0BC06093DB0181E08093DA012A
:1029C0001092D9011092D80115820895858188232B
:1029D00031F1668181E0860F8683813019F440935E
:1029E0000B010895823019F440930A0108959091E3
:1029F0000B01808198137DC090910A018781981303
:102A000078C08085882309F474C082819381DC01B9
:102A1000ED91FC9162500284F385E02D0994809140
:102A2000DB01882309F465C09091DA01992329F02C
:102A30006093D9011092DA0108956093D8019181D1
:102A4000292F206982130BC0662349F0828193816C
:102A5000DC01ED91FC910190F081E02D40C0392F17
:102A60003068831721F082130DC041110BC08281A1
:102A70009381DC01ED91FC910280F381E02D609166
:102A8000D90120C0292F206E82131EC0828193811C
:102A9000DC01ED91FC91411105C00288F389E02D24
:102AA00061E810C04F3729F40288F389E02D6FE701
:102AB00009C0642F70E060547109660F771F0288A7
:102AC000F389E02D09950EC0906B89130BC08281AC
:102AD0009381DC01ED91FC910088F189E02D6091FA
:102AE000D90109951092D9011092D80181E0809303
:102AF000DA0108958DE193E00C94240B8CED91E0C4
:102B00000C94301FDC011696ED91FC91179786818D
:102B100097810C945F14FC0184819581FC01EA5239
:102B2000FF4F23E03081231B208381579F4F0C945C
:102B3000B712DC011696ED91FC911797808591856F
:102B40000C940E26EF92FF920F931F93CF93DF9377
:102B50001F92CDB7DEB78C01611121C0413009F061
:102B6000C1C0DC011696ED91FC911797618D8085AF
:102B7000918549830E94F725D8011696ED91FC9125
:102B8000179749814827618D808591850F90DF9146
:102B9000CF911F910F91FF90EF900C94BF25613062
:102BA00009F083C0FC0186819781DC0159962C9144
:102BB0000480F581E02D223109F04AC0413021F432
:102BC000EA52FF4F40838EC0CF018A529F4F0E942E
:102BD000A613D8011496ED91FC911597DF01AA5226
:102BE000BF4F83E08C9386AD97ADD8011696ED91DB
:102BF000FC91179762E1813D9740A8F0808591850F
:102C00000E94A625D8011696ED91FC911797682F82
:102C1000808591850F90DF91CF911F910F91FF904B
:102C2000EF900C942626808591850E94A625D801D8
:102C30001696ED91FC911797682F808591850F90DE
:102C4000DF91CF911F910F91FF90EF900C94692627
:102C5000DC01ED90FC90413099F4108AEA52FF4F6C
:102C60004083D701ED91FC914FE7D80119966C9103
:102C70000F90DF91CF911F910F91FF90EF900994EA
:102C8000608BEA52FF4F23E02083D7011296ED912B
:102C9000FC911397D80119966C910F90DF91CF9109
:102CA0001F910F91FF90EF9009946230D9F4413059
:102CB000C9F4DC011696ED91FC911797DF01A95B31
:102CC000BF4F4C914F5F433008F040E063E1808597
:102CD00091850F90DF91CF911F910F91FF90EF9011
:102CE0000C947B250F90DF91CF911F910F91FF9056
:102CF000EF9008950F931F93CF93DF93EC01162F5E
:102D000048858C819D8101E0242F61E080529F4F96
:102D10000E944E12EE81FF81612F86819781DF91A3
:102D2000CF911F910F910C947C140F931F93CF930D
:102D3000DF931F92CDB7DEB78C0161110DC0642FF8
:102D4000DC0116968D919C9117970F90DF91CF9192
:102D50001F910F910C94C420613009F047C0DC0131
:102D60001496ED91FC91159783AD813081F51996FC
:102D70006C9119978FEF860F8E37C0F516968D914F
:102D80009C911797DC01ED91FC910280F381E02D7D
:102D900029830995F80181852981222319F08F5F04
:102DA000818702C081508187F80186819781DC018B
:102DB000ED91FC910190F081E02D4FE7D80119963B
:102DC0006C910F90DF91CF911F910F910994D801D1
:102DD0001696ED91FC911797618D808591850F90E6
:102DE000DF91CF911F910F910C947B250F90DF9174
:102DF000CF911F910F910895EF92FF920F931F9320
:102E0000CF93DF931F92CDB7DEB77C01362F142FFF
:102E1000022F633111F54130B1F060F0423009F01A
:102E200064C0DC011496ED91FC911597E552FF4FBB
:102E300081E011C0DC011496ED91FC911597E552EB
:102E4000FF4F108252C0DC011496ED91FC91159752
:102E5000E552FF4F82E0808348C0FC018481958168
:102E6000642F0B9639830E941729D70114968D91F0
:102E70009C9115973981313149F46EE0835B9F4F06
:102E80000E94AC12F701848195811EC0303111F48B
:102E90006BE011C0323171F46FE0835B9F4F0E9491
:102EA000AC12F70184819581612F81579F4F0E9459
:102EB000AC120FC0632F835B9F4F0E94AC12D701EF
:102EC00014968D919C911597612F81579F4F0E9469
:102ED000B712F70184819581FC01EF52FF4F002367
:102EE00011F021E001C023E020830F90DF91CF910A
:102EF0001F910F91FF90EF900895CF92EF920F9353
:102F0000FC016130A1F4A681B78159968C91823180
:102F100071F4408584819581CC24C39423E0E22E12
:102F200001E0242F68E08A529F4F0E94D9130F912D
:102F3000EF90CF900895CF93DF93EC0102960E941B
:102F40000929CE010B960E940929FE017496CE0133
:102F5000C296108211821382128214823596E8176B
:102F6000F907B9F7CE01CB969F01255E3F4F64E686
:102F700040ED57E01082DC0118971C9211961C92CC
:102F80001482138213961C9211966C935087478378
:102F900009963996E217F30769F7CE01835B9F4FD5
:102FA0000E949512CE0181579F4F0E949512CE012B
:102FB0008F529F4F0E946B13CE018A529F4F0E94E7
:102FC0006B13CE0185529F4F0E946B13CE0180522E
:102FD0009F4F0E941312FE01EC51FF4F1082319659
:102FE0001082CA51DF4F1882DF91CF9108951F924E
:102FF0000F920FB60F921124EF92FF920F931F932F
:103000002F933F934F935F936F937F938F939F93F0
:10301000AF93BF93CF93DF93EF93FF9380910C0413
:103020008F5F837080930C0481119BC080910A0490
:1030300090910B049C01205C3F4F283E43E03407F5
:1030400028F430930B0420930A040BC0885A934051
:1030500090930B0480930A0480911E048F5F8093E9
:103060001E0480E00E94091D8093080481E00E94F4
:10307000091D8093090420911904909108042111DD
:103080000AC0E0911404F0E0FE2FEE27E90FF11DD5
:10309000E456F64F15C0292F30E0E0911404F0E01B
:1030A000FE2FEE27E20FF31F97FF08C0E35EFE4FEF
:1030B000E491FF27E1950CF4F09506C0E456FE4F2D
:1030C000E491FF27E7FDF095F0930704E0930604F1
:1030D00090911A04282F30E0409106045091070483
:1030E000911113C08091150490E0F82FEE27E20FA4
:1030F000F31FE456F64F8491480F511D87FD5A95F2
:1031000050930704409306049EC1909118049817A9
:10311000A0F48091150490911804F901E91BF109BC
:1031200090E0982F8827E80FF91FE456FE4FE491AE
:10313000FF27E1950CF4F0950DC0E0911504F0E047
:10314000FE2FEE27E20FF31FE456FE4FE491FF2718
:10315000E7FDF095E40FF51FF0930704E0930604F4
:1031600072C1813009F052C080911B0481110FC0DF
:103170000E9463242091060430910704280F311D1A
:1031800087FD3A95309307042093060428C02091C8
:10319000180480910804881F8827881F91E03091C7
:1031A0000904231708F090E0E0911604F0E0EC56D3
:1031B000FE4F891731F0E491FF27E1950CF4F0956B
:1031C00004C0E491FF27E7FDF095809106049091FB
:1031D00007048E0F9F1F909307048093060480912D
:1031E000060490910704959587958F3791053CF4D7
:1031F00081385FEF95072CF481E89FEF02C08FE7DD
:1032000090E090930704809306041DC1823009F07A
:10321000B2C080911304C0910604D091070481309C
:1032200009F056C08091120400910D0410910E0413
:10323000A0911204F0911104E0900F04F09010049A
:10324000E0911104482FBE0146039001479F300DC5
:1032500011245A2F5003C001519F900D1124281B97
:10326000390B6F2F6003C001619F900D1124280F4F
:10327000391F6E2FA7016403C001659F900D1124B3
:10328000281B390B220F232F221F330B200F311F36
:1032900030930E0420930D045091120440911204B7
:1032A0005203C001539F900D1124B70146039001B2
:1032B000479F300D1124821B930B880F892F881F85
:1032C000990B8E0D9F1D9093100480930F04BBC02B
:1032D00080911304823009F049C060910D0470910F
:1032E0000E04E091110420910F043091100400911C
:1032F0001204109112044E2F4603C001479F900DF7
:1033000011240203F001039FF00D11248E1B9F0B6B
:10331000AE011403F001159FF00D11248E0F9F1FB5
:10332000880F892F881F990BAB01481B590B5093AD
:103330000E0440930D046091110410911204620375
:10334000C001639F900D11241403B001159F700DEF
:103350001124860F971F880F892F881F990B281B10
:10336000390B3093100420930F046DC0D0931004D8
:10337000C0930F0468C020910F04309110042F37C0
:1033800031053CF421385FEF35072CF421E83FEF9D
:1033900002C02FE730E03093100420930F044091D7
:1033A0001D0410910C014203C001439F900D112494
:1033B00060910404709105041603A001179F500D3D
:1033C0001124840F951F880F892F881F990B9093C4
:1033D000050480930404281B390B40911C04429F70
:1033E000C001439F900D11248038904C54F04091BF
:1033F0001C04429FC001439F900D112480389F43BD
:10340000B4F440911C04429FC001439F900D1124CD
:103410008038904C7CF040911C04429FC001439F37
:10342000900D1124880F892F881F990B05C08FE7F5
:1034300090E002C081E89FEF809306049093070418
:1034400081588093B400FF91EF91DF91CF91BF91AC
:10345000AF919F918F917F916F915F914F913F912C
:103460002F911F910F91FF90EF900F900FBE0F9033
:103470001F901895CF93DF93EC018BE391E0998334
:1034800088838FE491E09B838A8380911F0481115C
:103490000BC08DE193E00E949B1781E080931F0495
:1034A0008AE795E10E94B2298DE193E09D838C83A8
:1034B00080912704811168C085E591E09093DD013A
:1034C0008093DC0183E791E09093DF018093DE013C
:1034D0001092E00187E08093E10186EE91E00E9486
:1034E00025258CEE91E00E94252582EF91E00E9437
:1034F0005D241092F5011092F7011092F60188EF09
:1035000091E00E94DD1B80E092E00E942C118EE091
:1035100092E00E942C118CE192E00E94BA1B81E2A1
:1035200092E00E942B238CE292E00E94DE238DE247
:1035300092E00E94E22384E392E00E94712881E4F9
:1035400092E00E9471288EE492E00E94442783E773
:1035500092E00E94442710929802109299021092D1
:103560009A0280E8EBE9F2E0DF011D928A95E9F723
:103570008FE780931B0310921C0381E08093270444
:103580008EE795E10E94B2298CED91E09F838E83B6
:1035900081E088878CE38987BE016E5F7F4F8CED69
:1035A00091E00E94AF1FBE018C819D81DF91CF9180
:1035B0000C94EB0D2BE331E0FC01318320832FE4ED
:1035C00031E0338322830895CF92EF920F93CF930C
:1035D000DF93EC018C819D8121E0FC012187128A1F
:1035E0006FE370E00E94060CEC81FD81EC51FF4F0F
:1035F0008081811126C08E819F810E942E21AC8105
:10360000BD81AA51BF4FEE81FF816C918681978168
:103610000E945F1448858C819D81CC24C394EE2444
:10362000E39403E0242F64E08F529F4F0E94D9134C
:1036300048858C819D81242F64E08A529F4F0E948F
:10364000D913DF91CF910F91EF90CF9008951F93F1
:10365000CF93DF93EC018C819D81FC01EC51FF4FF6
:103660002081211105C010911E04112369F101C0B0
:1036700012E00E94250C612F8C819D810E94C70B56
:10368000612F8C819D810E94860C612F8C819D8190
:103690000E940F0D612F8C819D810E94850B8C8172
:1036A0009D810E948C0FEC81FD81EC51FF4F808148
:1036B00081110AC0612F8E819F810E94D21F80914B
:1036C0001E04811B80931E04EC81FD81EC51FF4F91
:1036D0008081811148C0EE81FF81DF01A05BBF4F77
:1036E0008C9190E09595879580931D0490911D0491
:1036F0008FE7891B80930C0150978C9180931C0459
:10370000828580931904878580931404868580932D
:103710001704808980931A0485898093150484890D
:1037200080931804848180931B0485818093160400
:103730009091130417968C91981751F0809313046D
:1037400010920E0410920D041092100410920F04A7
:10375000DF01A25BBF4F8C9180931204E15BFF4FAE
:10376000808180931104DF91CF911F91089502977A
:103770000C94FC16FC011082118287E0828380E1A8
:103780008383148208950895FC0123816203B001AC
:10379000112484E0759567958A95E1F78181680F1A
:1037A000711D6038710534F460388FEF78071CF4B0
:1037B00060E801C06FE76083089528E0E3E1F1E08D
:1037C000DC0101900D922A95E1F708950895F8948F
:1037D000E6EBF0E080818F7B808380818F7D80832A
:1037E000E0EBF0E080818160808380818260808373
:1037F000A1EBB0E08C91877F8C9380818F7E80835A
:1038000080818062808380818F7B808380818F77BD
:1038100080838C9181608C938C918D7F8C938C9123
:103820008B7F8C93E0E7F0E0808181608083E0E82B
:10383000F0E080818E7F808380818D7F8083E1E8CE
:10384000F0E080818860808380818F7E80838081AA
:103850008160808380818D7F808380818B7F808366
:1038600080910F01909110019093890080938800BE
:10387000EFE6F0E080818260808384B58E7F84BD36
:1038800084B5826084BD85B5877F85BD85B58E7F13
:1038900085BD85B58D7F85BD85B5846085BD8091ED
:1038A000120187BDEEE6F0E080818260808378942B
:1038B00008956F927F928F929F92AF92BF92CF9214
:1038C000DF92EF92FF920F931F93CF93DF93762EA9
:1038D00069017A01C62FD0E0FC0124E0629FE00D6F
:1038E000F11D11244081518162817381C416D50676
:1038F000E606F70609F47EC0C082D182E282F38236
:1039000000E010E0812C64E2962E64EFA62EB12C2C
:10391000C501B401002E04C0660F771F881F991FD0
:103920000A94D2F7A70196010E945B2DC9012130AC
:1039300065E0360760F061E070E0002E01C0660FC0
:103940000A94EAF7FE01E35FFE4F608305C00F5F54
:103950001F4F08301105E1F671100AC021503109DE
:103960003093100120930F0181E08093310442C015
:1039700040E08F3F910509F0B8F550E0FA0131972A
:10398000E830F10520F4EC5CFF4F0C949C2D21E015
:1039900022C021E015C021E005C022E01CC022E0C9
:1039A0000FC022E020931101C35FDE4F288130E079
:1039B00035952795359527950BC023E00CC023E05E
:1039C00020931101C35FDE4F288130E035952795A4
:1039D000288303C024E020931101815080931201B9
:1039E00081E08093320406C0969587954F5F4930F9
:1039F00009F0BFCFDF91CF911F910F91FF90EF9012
:103A0000DF90CF90BF90AF909F908F907F906F90FE
:103A10000895E82FF0E0EC5CFB4F808108958093DF
:103A2000330408951F920F920FB60F9211242F9313
:103A30008F939F9380913104882371F080910F01BF
:103A400090911001909389008093880080910D01DE
:103A500080933004109231049091340480913404A6
:103A600020913004820F80933404809133048823A2
:103A700031F080913404891710F4109235049F912D
:103A80008F912F910F900FBE0F901F9018951F923E
:103A90000F920FB60F9211248F939F93809132044F
:103AA000882361F08091110185BD80910E01809382
:103AB0002F048091120187BD109232048091350449
:103AC00090912F04890F809335049F918F910F90CF
:103AD0000FBE0F901F9018950895089508950895AA
:103AE0000895089582549F4FFC01608308950F93B9
:103AF0001F93CF93DF93EC016C3409F47DC068F51C
:103B0000683409F462C0C8F4653009F44CC0673405
:103B100009F458C0613009F08BC0042F10E0A3E015
:103B200015950795AA95E1F7402F60E0888599855E
:103B30000E947B25402F62E03DC0888599856A34CC
:103B400009F44BC050E06B3408F04FC073E055955A
:103B500047957A95E1F76EE02FC0603509F45AC0B9
:103B600078F4888599856E3409F449C008F04FC00F
:103B700050E033E0559547953A95E1F769E01CC070
:103B8000623509F44FC008F448C0633509F44DC0EC
:103B90006B3709F04DC08E819F81DF91CF911F91CE
:103BA0000F910C94661450E0F3E055954795FA9503
:103BB000E1F76FE088859985DF91CF911F910F9193
:103BC0000C947B25440F64E02AC050E0E3E0559557
:103BD0004795EA95E1F76BE0EDCF440F63E0DF91A5
:103BE000CF911F910F910C940E2663E05595479548
:103BF0006A95E1F76DE0E0CF440F62E010C050E05D
:103C000023E0559547952A95E1F76AE0D5CF440F13
:103C100060E0E5CF440F61E002C0440F65E08885B5
:103C20009985DDCF440F61E0C5CF440F63E0C2CF7B
:103C3000DF91CF911F910F910895EF92FF920F9313
:103C40001F93CF93DF93EC01E62EF42E062F10E0A6
:103C50000431110508F0A0C0F801E45CFF4F0C949A
:103C60009C2D642F8E589F4F07C0642F8E589F4FF6
:103C700009C0642F89569F4F0E9419288DC0642F58
:103C800089569F4F0E94622887C0842F880F880F13
:103C9000880F8158898B80C0842F8295807F8A8B82
:103CA0007BC0842F90E0959587958D838E8B74C013
:103CB000842F90E0959587958F876EC0842F90E034
:103CC000959587958D8B68C0FC01E85BFF4F63C0BD
:103CD000FC01E75BFF4F5FC0E42FF0E0EE0FFF1F3A
:103CE000E45AFB4E65917491849643C0E42FF0E052
:103CF000EE0FFF1FE45CFB4E6591749184960E9469
:103D00004D114AC0E42FF0E0EE0FFF1FE458FB4EC8
:103D10006591749184960E9447113EC0E42FF0E0B3
:103D2000EE0FFF1FE456FB4E65917491CE01849611
:103D30002CC0042F10E0000F111F045E1B4EF80171
:103D400065917491CE01885A9F4F0E94CB28F8014B
:103D500065917491CE018B599F4F0E94CB281CC056
:103D6000E42FF0E0EE0FFF1FE45AFB4E65917491D3
:103D7000C2960E94531110C0E42FF0E0EE0FFF1F17
:103D8000E456FB4E65917491C2960E94411104C0A5
:103D9000FC01E95BFF4FF082898DE81619F083E1A1
:103DA000E81219C0EA8DFB8D0190F081E02D0081B1
:103DB00011816E2D888599850E94F725282F4F2D1A
:103DC0006E2D8A8D9B8DF801DF91CF911F910F9100
:103DD000FF90EF900994DF91CF911F910F91FF9089
:103DE000EF900895623021F128F4662349F06130A4
:103DF00099F00895643059F130F1653061F108951A
:103E000050E055954795ECE9F3E1E41BF50BE4919F
:103E1000DC01AC56BF4F0AC0E42FF0E0F595E79502
:103E2000E456FC4EE491DC01A754BF4FEC93089597
:103E3000E42FF0E0F595E795E456FD4E64918F5A36
:103E40009F4F0C94EF23FC01EB5BFF4F07C0FC017D
:103E5000EA5BFF4F03C0FC01E05BFF4F4083089526
:103E6000EF92FF920F931F93CF93DF93EC0185E5C1
:103E700091E09983888383E791E09B838A83088517
:103E800019850115110531F0C8010E947325C8017B
:103E90000E94C7290E811F810115110531F0C8014B
:103EA0000E945E14C8010E94C7298E010E581F4F40
:103EB00071F07E018CEBE80EF11CE016F10639F092
:103EC00085E2E81AF108C7010E946D27F6CF7E014E
:103ED00088E5E80EF11CE114F10449F00E151F0508
:103EE00031F00D501109C8010E948228F7CFCE0190
:103EF0008F5A9F4F0E94EE23CE01805B9F4F0E94FE
:103F0000E123CE018B5B9F4F0E943823CE01805C62
:103F10009F4F0E94C31BCE01C2960E944011CE014A
:103F200084960E944011CE014C960E94E61B8E01A1
:103F30000A5E1F4FC8010E9462242A9649F00C179E
:103F40001D0731F006501109C8010E942F25F7CF37
:103F5000DF91CF911F910F91FF90EF9008950F93F4
:103F60001F93CF93DF93EC017B8F6A8F85E190E005
:103F70000E94C5298C01BE016E5F7F4F0E945625AD
:103F8000198708878DE090E00E94C5298C0140E0E8
:103F9000BE010E944E141F830E83DF91CF911F91AB
:103FA0000F9108952F923F924F925F926F927F925E
:103FB0008F929F92AF92BF92CF92DF92EF92FF9239
:103FC0000F931F93CF93DF9300D01F92CDB7DEB72F
:103FD0009B838A83262E46960E94E424EA80FB80F7
:103FE00081E5E80EF11C622DC7010E941724CA80EA
:103FF000DB80E4E2CE0ED11C622DC6010E949D1131
:104000008A809B80F2E38F0E911C622DC4010E9476
:104010009D1172E0B72E0A811B81005F1F4F60E087
:10402000C7010E940724482FC60149830E945911E5
:104030004981682FC8010E943025BA9481F7EA812E
:10404000FB81E45BFF4F8081811102C062E001C00F
:1040500060E0C7010E940724182FEA81FB81E35B1F
:10406000FF4F8081811102C0C60101C0C4010E94BE
:104070005F11282F412FEA81FB81E05CFE4F6081B8
:104080008A819B818B5B9F4F0E943923AA80BB80D2
:1040900088E5A80EB11C0A811B810E581F4F312CD8
:1040A0006A807B80EEEB6E0E711C4A805B80FCE1C7
:1040B0004F0E511C622DC5010E94D028F50184814C
:1040C0009581F801938B828B83A1811102C060E0FE
:1040D00001C061E0C7010E940724482FF80184A1B4
:1040E000811106C062E0C70149830E94072404C011
:1040F000C60149830E945F114981282FF301608125
:10410000C8010E946E27F8012489358940E050E0FB
:1041100066E0220F331F441F551F6A95D1F7632DA8
:10412000C2010E94591C3394FDE0AF0EB11C0B5D1F
:104130001F4F82E03812BECFEA81FB81EC5BFF4F5C
:104140008081811102C0C40101C0C6010E945F11BB
:10415000682F8A819B81805C9F4F0F900F900F90FA
:10416000DF91CF911F910F91FF90EF90DF90CF9053
:10417000BF90AF909F908F907F906F905F904F9087
:104180003F902F900C94C41BEF92FF920F931F93BC
:10419000CF93DF931F92CDB7DEB77C01162F6E3021
:1041A00069F46EE0DC0118968D919C9119970E943C
:1041B000F725882309F44FC081E149C06B30D1F560
:1041C0006BE0F701808591850E94F725882309F42B
:1041D00042C080E1F701818FD7015A96ED91FC91A1
:1041E0005B970190F081E02D0081118159966C91CF
:1041F000599718968D919C9119970E94F725282F11
:10420000F701618D8085918529830E94A6252981EA
:10421000482FD70159966C9159975A968D919C9138
:104220005B97F8010F90DF91CF911F910F91FF9055
:10423000EF9009946F3079F46FE0D70118968D9163
:104240009C9119970E94F725882329F082E1D701D4
:1042500059968C93C1CFF701118FBECFFF920F9368
:104260001F93CF93DF93EC014C960E94E71BF12C38
:10427000E881F981008D118D6F2D888599850E94C7
:104280002126482F6F2DCE01F8010995F394F6E011
:10429000FF12EECFF12CE881F981048915896F2D89
:1042A000888599850E94A625482F6F2DCE01F8019B
:1042B0000995E881F981068917896F2D8885998587
:1042C0000E94F725482F6F2DCE01F8010995F39430
:1042D000F4E1FF12E0CF60E0CE010E94C4208E0125
:1042E0000E5C1F4F6FEF7FE7C8010E944D116FEF0B
:1042F0007FE7C8010E94471161E0CE01885A9F4FB5
:104300000E94C72861E0CE018B599F4FDF91CF916A
:104310001F910F91FF900C94C728EF92FF920F937B
:104320001F93CF93DF93EC01E62EF42E062F10E0BF
:104330000331110508F07BC0F801E05BFF4F0C94DE
:104340009C2D642F8E589F4F07C0642F8E589F4F0F
:1043500009C0642F89569F4F0E943C2868C0642F73
:1043600089569F4F0E94662862C0842F0E940F1DAD
:104370005EC04B8B5CC04C835AC04A8758C0488B88
:1043800056C0FC01E45BFF4F03C0FC01E35BFF4F41
:10439000F0824DC0442309F44AC041E060E18885C1
:1043A00099850E94BF2560E13FC0FC01E65BFF4F9D
:1043B000442319F08FE080833AC0108238C0FC019A
:1043C000EC5BFF4FE5CF442391F141E061E188854B
:1043D00099850E94BF2561E127C0442341F141E056
:1043E00062E1888599850E94BF2562E11DC0411167
:1043F0001EC040E06BE0888599850E94BF256BE078
:1044000013C0411114C040E06EE0888599850E9478
:10441000BF256EE009C041110AC040E06FE0888509
:1044200099850E94BF256FE0CE010E94C420898D2E
:10443000E81219C0EA8DFB8D0190F081E02D00811A
:1044400011816E2D888599850E94A6252F2D482FD4
:104450006E2D8A8D9B8DF801DF91CF911F910F9169
:10446000FF90EF900994DF91CF911F910F91FF90F2
:10447000EF9008951F93CF93DF93EC01162FDC018B
:10448000A15CBE4F8C9168130DC0E62FF0E0EE0FDB
:10449000FF1FE456FE4E65917491CE01885A9F4FDE
:1044A0000E94B228DE01A05CBE4F8C9118130DC093
:1044B000E12FF0E0EE0FFF1FE456FE4E6591749180
:1044C000CE018B599F4F0E94B228CE0184960E9444
:1044D0008D11CE01C2960E948D11CE018F5A9F4F31
:1044E000DF91CF911F910C945924CF93DF93FC015E
:1044F000E60FF11DE154FF4F208121111EC0DC01A8
:10450000A454BF4F2C91EC01C354DF4F28832F5F7D
:104510002C9321E02083FC01E15CFE4F2081621797
:1045200008F46083FC01E05CFE4F2081261708F44C
:104530006083DF91CF910C943A22DF91CF9108955F
:10454000CF93DF93EC0184960E949711CE01C2961F
:10455000DF91CF910C9497110F931F93CF93DF931B
:10456000EC01FC01E60FF11DAF0141545F4FDA0190
:104570008C91882309F461C0DE01A454BF4F3C91A3
:10458000CE0183549F4FFC01308331503C93DA01BC
:104590001C92EE57FF4F8081681310C08FE7808315
:1045A000CE0120E00196DC01A254BF4F4C91442380
:1045B00011F0208303C02F5F2038A1F78E01005C2B
:1045C0001E4FD8018C91681310C01C92CE012FE7AA
:1045D000DC01A25CBE4F4C91442319F0D8012C930E
:1045E00004C0215001972111F3CF311107C0CE0132
:1045F000DF91CF911F910F910C94A022E081F0E008
:10460000EE0FFF1FE456FE4E65917491CE01885A5D
:104610009F4F0E94B228D801EC91F0E0EE0FFF1FEF
:10462000E456FE4E65917491CE018B599F4FDF91F8
:10463000CF911F910F910C94B228DF91CF911F91D0
:104640000F91089502970C941D1E02970C94F21E70
:1046500002970C948D21FC018FEF808312821382CC
:10466000148215821682178210861186128608958A
:104670000895BF92CF92DF92EF92FF920F931F9314
:10468000CF93DF93EC0188813B814303A001112488
:1046900074E0559547957A95E1F7480F511D3C8197
:1046A000230390011124E3E035952795EA95E1F77E
:1046B000420F531F61116E836D818E8190E0805493
:1046C0009109689F9001699F300D112463E0359531
:1046D00027956A95E1F7240F351F2F3F310509F023
:1046E00024F437FD05C0B22E04C0BB24BA9401C027
:1046F000B12C8A81823051F08330D1F1813009F0C0
:1047000048C02B2D30E0359527953EC02B2D30E04D
:10471000A5E7B0E00E94A22DC12CD12C7601CA944D
:10472000A70196010E947D2D2B5F3F4F4F4F5F4F9A
:1047300029871981AB2DB0E02EEE3FEF4FEF5FEFF1
:104740000E94B12DA70196010E947D2D29513109AA
:1047500041095109A12FB0E00E94B12DA701960196
:104760000E947D2D235D3F4F4F4F5F4F890111C048
:104770002B2D30E0ACEFB5E10E94A22D29E03DE306
:1047800040E050E00E945B2D2987098110E01595DB
:10479000079529852003C001219F900D1124880FC2
:1047A000892F881F990B8A87DF91CF911F910F91D5
:1047B000FF90EF90DF90CF90BF900895FC011082A2
:1047C00008950895FC0180E5808384E690E092835B
:1047D0008183138215821482168208950895FC0144
:1047E000608370E080E49FE10E94472D9B0172830B
:1047F0006183A381B0E00E94A22D26E09695879563
:10480000779567952A95D1F7758364830895FC01A0
:10481000623059F0838190E4699FF0011124E80F20
:10482000F11DE454FB4E84910895868108950F9301
:104830001F93CF93DF931F92CDB7DEB78C01FC019E
:1048400084819581860F911D958384832181328196
:10485000F801648175816217730730F0621B730B76
:10486000F80175836483F4CF80E090E046E0660F42
:10487000771F881F991F4A95D1F740E050E00E94AA
:104880005B2DF8018381281760F429830E94312F62
:10489000FEEF8F9FC001112481E8890FF801868304
:1048A0002981F80123830F90DF91CF911F910F9100
:1048B0000895FC01158214820895FC011082118272
:1048C000128208950895E0913C04F0E0E45CFA4E11
:1048D000E49180913D04F0E0E80FF11DE0933D0488
:1048E000E0913D04F0E0E25CFB4F808108950F937E
:1048F0001F9380913A0490913B042FEF289FA001D1
:10490000299F500D1124452F550F550B29E16202A7
:10491000C0011124892F990F990B480F591F5093EB
:104920003B0440933A04209138043091390476EFE7
:10493000729FC001739F900D1124892F990F990BBD
:104940007BE4670290011124232F330F330B820F76
:10495000931F9093390480933804E0913604F091CA
:10496000370471E97E9F90017F9F300D1124232F22
:10497000330F330B0DE011E06003F001619FF00D88
:104980001124EF2FFF0FFF0B2E0F3F1F3093370423
:1049900020933604840F951F820F931F2FE262022B
:1049A000B0011124672F770F770B860F971F803880
:1049B000910534F481387FEF97071CF481E801C03A
:1049C0008FE71F910F9108950F931F93CF93DF935C
:1049D000EC01888190E0FC01EA58FA4E0491FC0158
:1049E000E259FA4E14910E94312F202F332727FDD0
:1049F0003095211B310917FD3395482F429FC00187
:104A0000439F900D1124812F890F9981992321F0C3
:104A1000682FCE010E947724AA81B0E0A25CBB4F30
:104A20008C938A818F5F8A8380913C04813318F054
:104A300010923C0405C080913C048F5F80933C043D
:104A4000DF91CF911F910F910895FC0110828FE7A4
:104A5000818312821382848387E085830895089579
:104A6000FC01818190E072817723A9F023812111DB
:104A700004C0552747FD509504C0462F552747FDD4
:104A80005095749F9001759F300D1124232F330F83
:104A9000330B820F931F873F910514F086EF04C0FC
:104AA000893091050CF489E084830895CF93DF93D6
:104AB000EC018AE0EBE1F1E0DE0101900D928A95D4
:104AC000E1F780E88A871B861C8686E0E5E2F1E054
:104AD000DE011D9601900D928A95E1F77C8B6B8B20
:104AE000DF91CF910895FC0183899489009711F09B
:104AF0000C94C7290895A62FB0E0B595A795362F39
:104B00003170E32FF0E0E258FA4EE491A80FB91F9C
:104B10002E2F20955C912523330F330F542F01C086
:104B2000550F3A95EAF7352F3E23232B2C93DC01C2
:104B300053968D919C915497009739F0DC01ED913B
:104B4000FC910190F081E02D09940895262F2170A9
:104B5000E22FF0E0E258FA4EE49170E07595679527
:104B6000860F971FDC018C91E8238E2F90E0220F97
:104B7000220F02C0959587952A95E2F708950F9325
:104B80001F93E62FF0E053E0F595E7955A95E1F78E
:104B9000562F28EFE29F500D1124E80FF91F01E076
:104BA00010E020E030E004C0000F111F221F331F6F
:104BB0005A95D2F7442321F05285502B528704C0D6
:104BC0000095228502230287DC0153968D919C91EA
:104BD0005497009749F0DC01ED91FC910280F3813C
:104BE000E02D1F910F9109941F910F910895262F89
:104BF00030E073E0359527957A95E1F7820F931FA2
:104C0000FC01828590E0F8EF2F9F600D112402C017
:104C1000959587956A95E2F781700895FC01E60FF6
:104C2000F11D4587DC0153968D919C915497009717
:104C300039F0DC01ED91FC910480F581E02D0994BF
:104C40000895860F911DFC0185850895EF92FF92CE
:104C50001F93CF93DF93CDB7DEB766970FB6F89467
:104C6000DEBF0FBECDBF7C0186E1689FB00111247D
:104C70009701FE013196AE01455F5F4FCF01D9012B
:104C80001D919D011193E417F507C9F72AE030E063
:104C9000A701420F531FDA0113964C9141932F5FE6
:104CA0003F4F20313105A1F7F7012285298B23855C
:104CB0002A8B46E150E00E94200B66960FB6F894CE
:104CC000DEBF0FBECDBFDF91CF911F91FF90EF9060
:104CD00008956F927F928F929F92AF92BF92CF92E0
:104CE000DF92EF92FF920F931F93CF93DF93CDB795
:104CF000DEB766970FB6F894DEBF0FBECDBF8C014E
:104D000086E1689FB001112446E150E0CE01019692
:104D10000E94220BFE0131967F01712CFEE78F2E3F
:104D2000F5E19F2EAFE7AA2EA5E1BA2E6701F401A7
:104D30004491672C660CF70181917F014823662D11
:104D4000C8010E947B25F5014491F601808148232A
:104D500050E0E4E055954795EA95E1F761E0660D8E
:104D6000C8010E947B257394FAE07F12DFCF7E0199
:104D70008BE0E80EF11CD12CF70141917F016D2DE4
:104D8000C8010E940E26D394F6E0DF12F5CFE12C85
:104D9000F12C498950E00E2C02C0559547950A9494
:104DA000E2F741706E2DC8010E94BF258FEFE81A0F
:104DB000F80A98E0E916F10461F7E12CF12C4A8930
:104DC00050E00E2C02C0559547950A94E2F74170C9
:104DD00068E06E0DC8010E94BF25EFEFEE1AFE0AD3
:104DE000F8E0EF16F10459F766960FB6F894DEBFB7
:104DF0000FBECDBFDF91CF911F910F91FF90EF902C
:104E0000DF90CF90BF90AF909F908F907F906F90EA
:104E10000895CF92DF92EF92FF92CF936A017B01C8
:104E2000C22F682F772767FD7095872F972F0E94D5
:104E30007A2B20E030E04EEF52E40E94B32AA70123
:104E400096010E949B2C0E94202B6B017C016C2FF1
:104E500070E080E090E00E94782B9B01AC01C701DC
:104E6000B6010E949B2C20E030E040E85FE30E9406
:104E70004E2A0E94FE2C0E944C2B862FCF91FF9031
:104E8000EF90DF90CF900895CF93DF93EC018CE00B
:104E9000EBE2F1E0DE0101900D928A95E1F780E806
:104EA0008C8790E49D8790E29E8797E09F8796E0AD
:104EB000988B95E0998B1E8A1F8A188E198E1A8EF0
:104EC0001B8E1C8E1D8E1E8E1F8E18A219A28AA3E9
:104ED0001BA21CA2DF91CF91089508958F929F92FB
:104EE000AF92BF92CF92DF92EF92FF920F931F93F8
:104EF000CF93DF93EC01B62E842FA22E8A889B8855
:104F00006401E12CF12C9E899923F1F098A18E0186
:104F1000090F111D488D598D6A8D7B8DF8012485EF
:104F20000E940927282F30E02F5F3F4FD4010E94B5
:104F3000A22D6B017C01F801078404C0F694E7946C
:104F4000D794C7940A94D2F78F898823F9F089A15E
:104F50008E01080F111D4C8D5D8D6E8D7F8DF801BA
:104F600024858A2D0E940927A82FB0E01196A70159
:104F700096010E94B12D6B017C01F801078404C0E9
:104F8000F694E794D794C7940A94D2F7BB2031F1F2
:104F9000E8A1F0E08E010E0F1F1FEE0FFF1FEE0FB6
:104FA000FF1FEC0FFD1F4081518162817381F80169
:104FB00024858B2D0E940927A82FB0E01196A70108
:104FC00096010E94B12D6B017C01F801078404C099
:104FD000F694E794D794C7940A94D2F7AAA1A0387C
:104FE00071F0B0E0A70196010E94B12D6B017C0128
:104FF00087E0F694E794D794C7948A95D1F7C114C3
:10500000F0E4DF06E104F10428F08FEF9FE39D8BCD
:105010008C8B02C0DD8ACC8ADF91CF911F910F91DA
:10502000FF90EF90DF90CF90BF90AF909F908F90C8
:105030000895CF93DF93EC016E8B70E080E090E0F9
:105040000E94782B28A1FE0134E0239FE00DF11D82
:10505000112420813181428153810E949B2C20E0C8
:1050600030E040E751E40E94B32A688F798F8A8F3D
:105070009B8FDF91CF910895FC0163A30895CF9397
:10508000DF93EC016F8970E080E090E00E94782B64
:1050900029A1FE0134E0239FE00DF11D11242081A0
:1050A0003181428153810E949B2C20E030E040E717
:1050B00051E40E94B32A6C8F7D8F8E8F9F8FDF917A
:1050C000CF910895FC01678B0C943F28FC0164A3E9
:1050D000611102C021E002C022E0FC0121A30C9476
:1050E0003F28FC0188EB91E0918380839383828346
:1050F0009583848316821086178212861186148601
:10510000138608950895CF93DF93EC01AF81B8859E
:10511000109719F41A86198622C08E818823E9F027
:10512000488159818A819B81EC81FD818417950793
:1051300038F49A012E1B3F0B0E94A22D9F0106C03E
:105140009F01241B350B0E94A22D9A0140E050E0E4
:105150000E945B2D3A87298702C0BA87A987DF9111
:10516000CF910895FC01808191816817790771F0D2
:10517000848195816817790749F0718360839383EF
:10518000828314861386CF010C9483280895FC0132
:1051900066830C948328FC01708767830C948328B2
:1051A0000F931F93CF93DF93EC018C819D81288116
:1051B00039818217930709F1E985FA853097D1F093
:1051C000AB85BC85A60FB11DBC87AB87EA17FB0773
:1051D00088F00A811B8140E050E0201B310B41091F
:1051E00051090E94B12D9F0140E050E00E947D2DA9
:1051F000200F311F3D832C8307C02A813B81281754
:10520000390711F09B838A83DF91CF911F910F9112
:105210000895FC011082128211821482138281E0AF
:10522000858390E196838783108608950895FC0115
:10523000868168171CF081508083089567FF02C043
:105240001082089560830895FC0121813281838159
:105250009481A901481B590BCA0157FD03969595E6
:10526000879595958795009729F13483238397FD3A
:1052700003C021E0208701C0108625812223A1F0F0
:105280009081980F908327818681222349F0981777
:1052900014F0981B03C097FF07C0980F908304C0B9
:1052A000981724F08150808381E0089597FFFCCF08
:1052B0001082FACF80E00895FC01118214821382DB
:1052C000158284E6868360836283508747830895CE
:1052D0000895FC014081413011F080E00895838100
:1052E0009481860F911D9483838327813085821753
:1052F000930798F385818111F0CF458381E008956C
:10530000FC0191818681981710F4960F9183918109
:105310009817B0F090812281921791F0913039F472
:1053200021110AC014821382158281E006C09111F6
:1053300003C081E0213009F080E09283118208955A
:1053400080E008958EE395E00C94E41A8EE395E0F6
:105350000C94271B8EE395E00C943A1A8EE395E0AB
:105360000C94DA1A80E090E0089508950E94132AC0
:105370000E94B5290E94A229C0E0D0E00E94A6297F
:105380002097E1F30E940000F9CF0C94BC2D0C94FF
:10539000542E1F920F920FB60F9211242F933F930A
:1053A0008F939F93AF93BF938091490590914A0546
:1053B000A0914B05B0914C053091480523E0230F97
:1053C0002D3720F40196A11DB11D05C026E8230F3D
:1053D0000296A11DB11D2093480580934905909325
:1053E0004A05A0934B05B0934C0580914D059091D3
:1053F0004E05A0914F05B09150050196A11DB11D1C
:1054000080934D0590934E05A0934F05B0935005A2
:10541000BF91AF919F918F913F912F910F900FBEB0
:105420000F901F901895789484B5826084BD84B5E0
:10543000816084BD85B5826085BD85B5816085BD8F
:10544000EEE6F0E0808181608083E1E8F0E01082A8
:10545000808182608083808181608083E0E8F0E0E9
:10546000808181608083E1EBF0E0808184608083D3
:10547000E0EBF0E0808181608083EAE7F0E080810A
:10548000846080838081826080838081816080836A
:105490008081806880831092C10008955058BB2796
:1054A000AA270ED09EC18FD130F094D120F031F4D4
:1054B0009F3F11F41EF45FC10EF4E095E7FB55C168
:1054C000E92FA0D180F3BA17620773078407950705
:1054D00018F071F49EF5B8C10EF4E0950B2EBA2FBA
:1054E000A02D0B01B90190010C01CA01A0011124EA
:1054F000FF27591B99F0593F50F4503E68F11A1696
:10550000F040A22F232F342F4427585FF3CF469526
:1055100037952795A795F0405395C9F77EF41F1648
:10552000BA0B620B730B840BBAF09150A1F0FF0F12
:10553000BB1F661F771F881FC2F70EC0BA0F621FFE
:10554000731F841F48F4879577956795B795F795EE
:105550009E3F08F0B3CF9395880F08F09927EE0F80
:105560009795879508950CD03CC134D140F02BD14C
:1055700030F021F45F3F19F0F8C0511166C1FBC053
:1055800041D198F39923C9F35523B1F3951B550BDA
:10559000BB27AA2762177307840738F09F5F5F4F06
:1055A000220F331F441FAA1FA9F333D00E2E3AF047
:1055B000E0E830D091505040E695001CCAF729D061
:1055C000FE2F27D0660F771F881FBB1F26173707B0
:1055D0004807AB07B0E809F0BB0B802DBF01FF27E0
:1055E00093585F4F2AF09E3F510568F0BEC02DC111
:1055F0005F3FECF3983EDCF3869577956795B7951A
:10560000F7959F5FC9F7880F911D9695879597F934
:105610000895E1E0660F771F881FBB1F62177307AD
:105620008407BA0720F0621B730B840BBA0BEE1FC2
:1056300088F7E095089519F40EF097C005C19BC056
:10564000E9D0C8F39638C0F707F80F92E8942BE337
:105650003AEA48EB5FE77DD10F920F920F924DB778
:105660005EB70F9235D1E6ECF0E088D04F915F91B4
:10567000EF91FF91E595EE1FFF1F49F0FE57E0689F
:105680004427EE0F441FFA95E1F74195550BECD0F6
:105690000F9007FEE0C00895BDD088F09F5790F0AE
:1056A000B92F9927B751A0F0D1F0660F771F881F47
:1056B000991F1AF0BA95C9F712C0B13081F0C4D061
:1056C000B1E00895C1C0672F782F8827B85F39F0FF
:1056D000B93FCCF3869577956795B395D9F73EF4A6
:1056E00090958095709561957F4F8F4F9F4F08954E
:1056F000E89409C097FB3EF490958095709561956C
:105700007F4F8F4F9F4F9923A9F0F92F96E9BB2721
:105710009395F695879577956795B795F111F8CF9D
:10572000FAF4BB0F11F460FF1BC06F5F7F4F8F4F08
:105730009F4F16C0882311F096E911C0772321F0FE
:105740009EE8872F762F05C0662371F096E8862F96
:1057500070E060E02AF09A95660F771F881FDAF7ED
:10576000880F9695879597F9089597F99F6780E830
:1057700070E060E008959FEF80EC0895DF93CF9391
:105780001F930F93FF92EF92DF927B018C0168943D
:1057900005C0DA2EEF01DBD0FE01E894A59125913A
:1057A000359145915591AEF3EF018ADEFE019701E7
:1057B000A801DA9479F7DF90EF90FF900F911F9195
:1057C000CF91DF91089500240A9416161706180643
:1057D0000906089500240A941216130614060506F5
:1057E0000895092E0394000C11F4882352F0BB0F86
:1057F00040F4BF2B11F460FF04C06F5F7F4F8F4FE9
:105800009F4F089557FD9058440F551F59F05F3F23
:1058100071F04795880F97FB991F61F09F3F79F0D2
:1058200087950895121613061406551FF2CF469554
:10583000F1DF08C0161617061806991FF1CF8695D6
:105840007105610508940895E894BB2766277727BA
:10585000CB0197F908959B01AC0160E070E080E80E
:105860009FE381CE82CF05C1D5DFE8F39923D9F339
:10587000940F511DBBF39150504094F059F0882380
:1058800032F0660F771F881F91505040C1F79E3F3E
:10589000510544F7880F911D9695879597F90895BE
:1058A0005F3FACF0983E9CF0BB2786957795679557
:1058B000B79508F4B1609395C1F7BB0F58F711F491
:1058C00060FFE8CF6F5F7F4F8F4F9F4FE3CFBDCF1C
:1058D000FA01DC01AA0FBB1F9B01AC01BF5728F4E2
:1058E00022273327442750781FC0B75188F4AB2FA5
:1058F0000024469537952795011CA395D2F30020E7
:1059000069F0220F331F441FB395DAF30DD0C6CDD3
:1059100061307105A0E88A07B94630F49B01AC01FB
:105920006627772788279078309621F02083318367
:105930004283538308950BD054CF45DF28F04ADFCC
:1059400018F0952309F011CF16CF11247ECF5ADF1E
:10595000A0F3959FD1F3950F50E0551F629FF00182
:10596000729FBB27F00DB11D639FAA27F00DB11DDB
:10597000AA1F649F6627B00DA11D661F829F222764
:10598000B00DA11D621F739FB00DA11D621F839FEB
:10599000A00D611D221F749F3327A00D611D231FC1
:1059A000849F600D211D822F762F6A2F11249F570F
:1059B00050408AF0E1F088234AF0EE0FFF1FBB1F32
:1059C000661F771F881F91505040A9F79E3F5105D1
:1059D00070F0CBCE3ACF5F3FECF3983EDCF3869588
:1059E00077956795B795F795E7959F5FC1F7FE2B7C
:1059F000880F911D9695879597F908950BDFE0F034
:105A00009E37D8F09639B8F49E3848F4672F782F2F
:105A10008827985FF9CF86957795679593959539FF
:105A2000D0F3B62FB1706B0F711D811D20F48795D7
:105A300077956795939502C01CC007CF882371F4B2
:105A4000772321F09850872B762F07C0662311F417
:105A500099270DC09051862B70E060E02AF09A954E
:105A6000660F771F881FDAF7880F9695879597F945
:105A700008959F3F31F0915020F487957795679571
:105A8000B795880F911D9695879597F90895AA1B4C
:105A9000BB1B51E107C0AA1FBB1FA617B70710F019
:105AA000A61BB70B881F991F5A95A9F7809590954B
:105AB000BC01CD010895A1E21A2EAA1BBB1BFD015A
:105AC0000DC0AA1FBB1FEE1FFF1FA217B307E407DD
:105AD000F50720F0A21BB30BE40BF50B661F771F35
