:100000000C9435000C945D000C945D000C945D0024
:100010000C945D000C945D000C945D000C945D00EC
:100020000C945D000C945D000C945D000C945D00DC
:100030000C945D000C945D000C945D000C945D00CC
:100040000C94E2020C945D000C9405020C943702AF
:100050000C945D000C945D000C945D000C945D00AC
:100060000C945D000C945D00670211241FBECFEF5D
:10007000D8E0DEBFCDBF11E0A0E0B1E0E2E3F7E001
:1000800002C005900D92A031B107D9F721E0A0E19F
:10009000B1E001C01D92A73BB207E1F710E0CAE64C
:1000A000D0E004C02297FE010E948B03C836D1071E
:1000B000C9F70E94AB020C9497030C94000026E051
:1000C00040E855E260E070E081E191E00C94A3012A
:1000D000CF93C82F682F81E191E00E943E0190915B
:1000E00010019C0F90931001CF9108950F931F93CF
:1000F000CF93DF9381E191E00E94C00018161906AA
:10010000D4F51092100181E191E00E94D900EC0138
:1001100084E0CC0FDD1F8A95E1F7C07FDF7080E1BE
:100120000E9468008D2F0E9468008C2F0E9468003A
:1001300080E00E9468008E01005F1F4FCE010E9488
:100140008F030E9468002196C017D107B9F7E0918C
:100150001101F09112016091100170E071956195AB
:1001600071090190F081E02D81E191E0DF91CF9163
:100170001F910F910994DF91CF911F910F910895D5
:10018000FC01818D228D90E0805C9F4F821B910944
:100190008F7399270895FC01918D828D981731F006
:1001A000828DE80FF11D858D90E008958FEF9FEF10
:1001B0000895FC01918D828D981761F0828DDF0189
:1001C000A80FB11D5D968C91928D9F5F9F73928F4A
:1001D00090E008958FEF9FEF08958DE592E0892BD1
:1001E00049F080E090E0892B29F00E945D028111A6
:1001F0000C9400000895FC01848DDF01A80FB11D4F
:10020000A35ABF4F2C91848D90E001968F7399274C
:10021000848FA689B7892C93A089B1898C91806439
:100220008C93938D848D981306C00288F389E02DFA
:1002300080818F7D80830895CF93DF93EC01888D3B
:100240008823C9F0EA89FB89808185FD05C0A889DA
:10025000B9898C9186FD0FC00FB607FCF5CF808160
:1002600085FFF2CFA889B9898C9185FFEDCFCE01AA
:100270000E94FB00E7CFDF91CF910895CF92DF92EC
:10028000FF920F931F93CF93DF931F92CDB7DEB7EB
:100290006C0181E0D60158968C9358975B969C919F
:1002A0005B975C968C915C97981307C05096ED9184
:1002B000FC915197808185FD2EC0F601038D10E0E1
:1002C0000F5F1F4F0F731127F02EF601848DF81268
:1002D00011C00FB607FCF9CFD6015096ED91FC91F5
:1002E0005197808185FFF1CFC60169830E94FB0091
:1002F0006981EBCF838DE80FF11DE35AFF4F6083D7
:10030000D6015B960C935B975296ED91FC915397B7
:10031000808180620CC0D6015696ED91FC91579772
:1003200060835096ED91FC91519780818064808329
:1003300081E090E00F90DF91CF911F910F91FF909E
:10034000DF90CF900895BF92CF92DF92EF92FF920D
:10035000CF93DF93EC016A017B01B22EE889F98922
:1003600082E08083411581EE580761057105A1F097
:1003700060E079E08DE390E0A70196010E946703B9
:1003800021503109410951095695479537952795CF
:10039000211580E1380798F0E889F989108260E832
:1003A00074E88EE190E0A70196010E946703215056
:1003B0003109410951095695479537952795EC859F
:1003C000FD853083EE85FF852083188EEC89FD89BD
:1003D000B082EA89FB89808180618083EA89FB8918
:1003E000808188608083EA89FB898081806880833E
:1003F000EA89FB8980818F7D8083DF91CF91FF9097
:10040000EF90DF90CF90BF9008951F920F920FB69C
:100410000F9211242F938F939F93EF93FF93E0916B
:100420002101F09122018081E0912701F0912801C2
:1004300082FD12C0908180912A018F5F8F7320917D
:100440002B01821751F0E0912A01F0E0EF5EFE4FA0
:10045000958F80932A0101C08081FF91EF919F9138
:100460008F912F910F900FBE0F901F9018951F9294
:100470000F920FB60F9211242F933F934F935F93D8
:100480006F937F938F939F93AF93BF93EF93FF935C
:1004900081E191E00E94FB00FF91EF91BF91AF914C
:1004A0009F918F917F916F915F914F913F912F918C
:1004B0000F900FBE0F901F90189581E191E00E9460
:1004C000C00021E0892B09F420E0822F08951092CA
:1004D00014011092130188EE93E0A0E0B0E0809345
:1004E000150190931601A0931701B093180184E0B1
:1004F00091E0909312018093110185EC90E090932C
:100500001E0180931D0184EC90E090932001809364
:100510001F0180EC90E0909322018093210181ECF7
:1005200090E0909324018093230182EC90E09093DB
:1005300026018093250186EC90E09093280180931A
:10054000270110922A0110922B0110922C01109277
:100550002D01089508950E942C030E94AA020E9472
:100560005F00CDEED0E00E9476002097E1F30E947C
:10057000ED00F9CFCF92DF92EF92FF920F931F938E
:10058000CF93DF937C016A01EB0100E010E00C15D2
:100590001D0571F06991D701ED91FC910190F081F9
:1005A000E02DC7010995892B19F00F5F1F4FEFCF81
:1005B000C801DF91CF911F910F91FF90EF90DF90D5
:1005C000CF9008951F920F920FB60F9211242F9380
:1005D0003F938F939F93AF93BF938091AF0190917F
:1005E000B001A091B101B091B2013091AE0123E010
:1005F000230F2D3720F40196A11DB11D05C026E85B
:10060000230F0296A11DB11D2093AE018093AF016F
:100610009093B001A093B101B093B2018091B30166
:100620009091B401A091B501B091B6010196A11DC0
:10063000B11D8093B3019093B401A093B501B09321
:10064000B601BF91AF919F918F913F912F910F90E4
:100650000FBE0F901F901895789484B5826084BD6A
:1006600084B5816084BD85B5826085BD85B58160B6
:1006700085BDEEE6F0E0808181608083E1E8F0E016
:100680001082808182608083808181608083E0E845
:10069000F0E0808181608083E1EBF0E08081846024
:1006A0008083E0EBF0E0808181608083EAE7F0E026
:1006B000808184608083808182608083808181608A
:1006C00080838081806880831092C1000895A1E2B8
:1006D0001A2EAA1BBB1BFD010DC0AA1FBB1FEE1FBC
:1006E000FF1FA217B307E407F50720F0A21BB30B07
:1006F000E40BF50B661F771F881F991F1A9469F783
:1007000060957095809590959B01AC01BD01CF01DE
:100710000895EE0FFF1F0590F491E02D0994F999CB
:10072000FECF92BD81BDF89A992780B50895F894BF
:02073000FFCFF9
:10073200000000003E01BA02C000D900CB001C013B
:00000001FF
