:200000000C9435000C945D000C945D000C945D000C945D000C945D000C945D000C945D0020
:200020000C945D000C945D000C945D000C945D000C945D000C945D000C945D000C945D00D8
:200040000C94E2020C945D000C9405020C9437020C945D000C945D000C945D000C945D00AB
:200060000C945D000C945D00670211241FBECFEFD8E0DEBFCDBF11E0A0E0B1E0E2E3F7E0CE
:2000800002C005900D92A031B107D9F721E0A0E1B1E001C01D92A73BB207E1F710E0CAE67B
:2000A000D0E004C02297FE010E948B03C836D107C9F70E94AB020C9497030C94000026E01F
:2000C00040E855E260E070E081E191E00C94A301CF93C82F682F81E191E00E943E01909155
:2000E00010019C0F90931001CF9108950F931F93CF93DF9381E191E00E94C0001816190669
:20010000D4F51092100181E191E00E94D900EC0184E0CC0FDD1F8A95E1F7C07FDF7080E107
:200120000E9468008D2F0E9468008C2F0E94680080E00E9468008E01005F1F4FCE010E94F3
:200140008F030E9468002196C017D107B9F7E0911101F09112016091100170E07195619588
:2001600071090190F081E02D81E191E0DF91CF911F910F910994DF91CF911F910F910895A9
:20018000FC01818D228D90E0805C9F4F821B91098F7399270895FC01918D828D981731F0DB
:2001A000828DE80FF11D858D90E008958FEF9FEF0895FC01918D828D981761F0828DDF014A
:2001C000A80FB11D5D968C91928D9F5F9F73928F90E008958FEF9FEF08958DE592E0892BEC
:2001E00049F080E090E0892B29F00E945D0281110C9400000895FC01848DDF01A80FB11DE6
:20020000A35ABF4F2C91848D90E001968F739927848FA689B7892C93A089B1898C91806497
:200220008C93938D848D981306C00288F389E02D80818F7D80830895CF93DF93EC01888D67
:200240008823C9F0EA89FB89808185FD05C0A889B9898C9186FD0FC00FB607FCF5CF80818C
:2002600085FFF2CFA889B9898C9185FFEDCFCE010E94FB00E7CFDF91CF910895CF92DF9208
:20028000FF920F931F93CF93DF931F92CDB7DEB76C0181E0D60158968C9358975B969C911C
:2002A0005B975C968C915C97981307C05096ED91FC915197808185FD2EC0F601038D10E017
:2002C0000F5F1F4F0F731127F02EF601848DF81211C00FB607FCF9CFD6015096ED91FC912F
:2002E0005197808185FFF1CFC60169830E94FB006981EBCF838DE80FF11DE35AFF4F60835A
:20030000D6015B960C935B975296ED91FC915397808180620CC0D6015696ED91FC9157973C
:2003200060835096ED91FC91519780818064808381E090E00F90DF91CF911F910F91FF90FA
:20034000DF90CF900895BF92CF92DF92EF92FF92CF93DF93EC016A017B01B22EE889F98982
:2003600082E08083411581EE580761057105A1F060E079E08DE390E0A70196010E946703C3
:2003800021503109410951095695479537952795211580E1380798F0E889F989108260E894
:2003A00074E88EE190E0A70196010E94670321503109410951095695479537952795EC85A8
:2003C000FD853083EE85FF852083188EEC89FD89B082EA89FB89808180618083EA89FB89A8
:2003E000808188608083EA89FB89808180688083EA89FB8980818F7D8083DF91CF91FF90C8
:20040000EF90DF90CF90BF9008951F920F920FB60F9211242F938F939F93EF93FF93E0911B
:200420002101F09122018081E0912701F091280182FD12C0908180912A018F5F8F73209173
:200440002B01821751F0E0912A01F0E0EF5EFE4F958F80932A0101C08081FF91EF919F912C
:200460008F912F910F900FBE0F901F9018951F920F920FB60F9211242F933F934F935F93E0
:200480006F937F938F939F93AF93BF93EF93FF9381E191E00E94FB00FF91EF91BF91AF913C
:2004A0009F918F917F916F915F914F913F912F910F900FBE0F901F90189581E191E00E94A0
:2004C000C00021E0892B09F420E0822F0895109214011092130188EE93E0A0E0B0E08093E3
:2004E000150190931601A0931701B093180184E091E0909312018093110185EC90E09093D1
:200500001E0180931D0184EC90E09093200180931F0180EC90E0909322018093210181EC70
:2005200090E0909324018093230182EC90E0909326018093250186EC90E09093280180932A
:20054000270110922A0110922B0110922C0110922D01089508950E942C030E94AA020E943E
:200560005F00CDEED0E00E9476002097E1F30E94ED00F9CFCF92DF92EF92FF920F931F937F
:20058000CF93DF937C016A01EB0100E010E00C151D0571F06991D701ED91FC910190F08160
:2005A000E02DC7010995892B19F00F5F1F4FEFCFC801DF91CF911F910F91FF90EF90DF900B
:2005C000CF9008951F920F920FB60F9211242F933F938F939F93AF93BF938091AF019091D4
:2005E000B001A091B101B091B2013091AE0123E0230F2D3720F40196A11DB11D05C026E860
:20060000230F0296A11DB11D2093AE018093AF019093B001A093B101B093B2018091B301EB
:200620009091B401A091B501B091B6010196A11DB11D8093B3019093B401A093B501B09317
:20064000B601BF91AF919F918F913F912F910F900FBE0F901F901895789484B5826084BDA4
:2006600084B5816084BD85B5826085BD85B5816085BDEEE6F0E0808181608083E1E8F0E042
:200680001082808182608083808181608083E0E8F0E0808181608083E1EBF0E080818460FF
:2006A0008083E0EBF0E0808181608083EAE7F0E08081846080838081826080838081816066
:2006C00080838081806880831092C1000895A1E21A2EAA1BBB1BFD010DC0AA1FBB1FEE1F4A
:2006E000FF1FA217B307E407F50720F0A21BB30BE40BF50B661F771F881F991F1A9469F780
:2007000060957095809590959B01AC01BD01CF010895EE0FFF1F0590F491E02D0994F999C0
:20072000FECF92BD81BDF89A992780B50895F894FFCF000000003E01BA02C000D900CB0082
:200740001C01D3F6EDEFCB19250D3C40F1417F220909F5D41F2A31025D23C68005181E4BCF
:200760002CB8D93BF90D0A22DD424D34C90715E1BEC9D5980707FEFA0C251919647178DC63
:20078000C57F736324081209F1DAD1DCCC8C8482273A8999ADF208F277F01A3242B9CC0389
:2007A0003E0F06DF6A057D669980F79320F7EFC2FC3045BFCEE4108E25CF1FC214E4804637
:2007C0005613C05E0459DE2F0F8E60F0EFBD4137BA1AB43DC7E80AB32C777E6F3507F9021F
:2007E0000B00E7CCBDC4D8F10F283B403015FBF1FB04F5C68D808AD5808CB18C8E8087CA40
:2008000012F5F1121D100603FBFAEDE3F11406F046757F6D684E716E1C2426262524212383
:20082000432C1D16110E0D0D29170C06030100F680899CADBDCCD9E88081899ACCD50A1610
:200840000A1C3211F5E5F419E50B1908ECCCE4F5E9F62B3365737A7F235E7647335458403B
:200860001B1306BE919280A2ED3057403E37C9A0CAF90DDBBAC3B6D8457E7D7851F8A280D6
:200880008FB6E30F3A62796920C08780839C10767E5AA941ED8385C08018891B921D9A1EFD
:2008A000A317AC16B416BD10D817F11E0725192C2B2F36363F3D45382823CEE02B008BDD6B
:2008C000EA340B08180FE1105F5E80BAF61CE6EFF8E4D0213371DCE1E3D974E29F65F6E9CE
:2008E000C858F08068FDE1CD4D248D5921D1CA4221910549D0B959056878781D808B931EE8
:20090000764A57B8B6CAC23F044715FC1FA7E3B8F9664B6FC79985A51C5630CBB0EC263DBB
:20092000EE20B8F42EDAF932FEFFDECB07404BE699D611497F9FA3E00FF0210023002500DA
:20094000270029002C002E003100340037003A003E004100450049004E00520057005C00B7
:20096000620068006E0075007B0083008B0093009C00A500AF00B900C400D000DC00E900AC
:20098000F70006011501260137014A015D01720188019F01B801D201EE010B022A024B029E
:2009A0006E029302BA02E40210033F037003A403DC03170455049704DD0427057505C805DF
:2009C00020067D06E0064907B8072D08A9082D09B9094D0AEA0A900B400CFA0CC00D910EF7
:2009E0006F0F5A1053115B1272139A14D41520178018F519801B231DDE1EB420A622B524F9
:200A0000E4263429A72B402E0031EA330037453ABC3D68414C456B49C84D68524F57805CF3
:200A20000062D467006E8A74797BD082978AD592909BD0A49DAEFFB8FFC306050410050355
:200A40000F040210010F000E000001000100010055150300010055150300010055550100C9
:200A6000555501005555020004000C0B0A100B090F0A0810070F061005040100010001006D
:200A80005500030001005500030001005501010055010100550501000100000005000E0087
:200AA0001B002E004D007B00C3003201DD01E4027904E806A80A6F10541900000008001149
:200AC00000190022002A0033003B0044004C0055005D0066006E0077FF7FFF7FFF0F900517
:200AE000AA027401D90085005600390026001A0013000D0009000700050000000000000073
:200B0000000000000000000000000102030405060708090A0B0C0D0E0F10FFFEFDFCFBFA62
:200B2000F9F8F7F6F5F4F3F2F1F001010202030304040505060607070808010102030404D1
:200B40000506070708090A0A0B0C0103020403050406050706080709080AFFFDFEFCFDFBFA
:200B6000FCFAFBF9FAF8F9F7F8F6FFFFFFFFFDFDFEFEFFFFFFFFFDFDFEFE020103020405C6
:200B800006010201030204050601FFFEFFFCFEFFFCFFFCFEFDFEFFFDFEFF01020302040349
:200BA0000203010302040103020101020302FF0605040101FFFE01010401040104010301F5
:200BC0000401020103010401040101010404010104040303060602020505010103020204BE
:200BE00003030504040605050706010203020102030201020302010203020001000200039F
:200C0000000400050001FF02FF00FE0101FE00FF02FF0100040507023084000101020203FC
:200C2000040405050607070809090A0B0B0C0D0D0E0F0F10111212131414151617171819F8
:200C40001A1B1B1C1D1E1F1F20212223242525262728292A2B2C2D2E2F2F303132333435B4
:200C6000363738393A3B3D3E3F4041424344454648494A4B4C4D4F50515253555657595A89
:200C80005B5C5E5F606263646667696A6B6D6E707173747677797A7C7D7F032D022D1124BD
:200CA0001FBECFEFD8E0DEBFCDBF11E0A0E0B1E0E6E0F2E702C005900D92AE37B107D9F7B4
:200CC00023E0AEE7B1E001C01D92AA38B207E1F716E0CEE4D6E004C02197FE010E94BE3798
:200CE000CD34D107C9F70E94E5150C94F6380C940000FC01EF53FF4F60830895DC01589679
:200D00008D919C915997DC01ED91FC910680F781E02D0994FC01EA53FF4F81E0808308957F
:200D2000CF93DF93EC01FC01EE53FF4F80814889598968130EC010829A0122573F4F8FE7BF
:200D4000D9019E919D01992311F0808302C08150B9F7DA011D968C919E012C543F4F8111FF
:200D600017C0D9018D919C91DC0112968C9181110FC094E098A781E089A79EAB8FABE8893C
:200D8000F9898585C054DF4F8883DF91CF910895D9018D919C91DC0112962C9121111FC095
:200DA000E081F0E0EE0FFF1FE65CF64F85919491FE01E357FF4F2081318182179307F9F22D
:200DC0002481358182179307D1F2918380833383228314861386CF010E94B90ED0CF0E94A3
:200DE0001C0DCDCF242FFC01ED53FF4F662309F442C03081313051F138F033503230E0F592
:200E0000FC01EB53FF4F37C03FEF360FDC0152968D919C915397303118F4632F0C94BF1275
:200E2000363128F4220F4FEE460F60E006C03C3130F4220F49EE460F61E00C94301241E0D4
:200E4000211101C040E06D510C945F1230E0220F331F2E5731096150DC015496ED91FC91DB
:200E600055970680F781E02D81819281009721F0FC01E60FF11D208308950F931F93CF93C8
:200E8000DF93683409F421C1EC01693408F049C0603209F4B0C010F5613109F491C070F492
:200EA000653009F481C0603109F486C0613009F076C150E09A013595279522C1633109F405
:200EC00092C008F481C0643109F069C150E0E3E055954795EA95E1F76EE07DC0673209F49A
:200EE000B9C080F4653209F49BC008F0A6C0613209F055C150E063E0559547956A95E1F706
:200F000061E069C0693209F4BFC008F4B0C06A3209F4C7C0673409F042C1242F220F41E088
:200F20001EC1613509F4FCC018F56D3409F4E6C080F46A3409F4DEC008F4D4C06B3409F05D
:200F40002EC150E0E3E055954795EA95E1F766E042C050E08A899B896F3409F4D3C008F0B8
:200F6000D8C073E0559547957A95E1F769E035C06C3509F4EDC048F4633509F4E1C008F4E2
:200F8000D7C06B3509F4F1C00AC16E3509F4E9C008F4E2C06F3509F4E8C06B3709F0FFC017
:200FA00008891989C0E0EDC050E0B3E055954795BA95E1F76DE00FC0242F220F42E0CFC0B0
:200FC000242F220F45E0CBC050E0A3E055954795AA95E1F76BE08A899B89DF91CF911F914B
:200FE0000F910C94BF1250E0F3E055954795FA95E1F76CE0F0CF50E08A01159507951595FA
:2010000007958A899B890031110514F041E001C040E060E00E945F12402F4F7060E0DBCF45
:2010200050E09A0146E0359527954A95E1F741E0232B09F440E061E040C050E09A0196E074
:20104000359527959A95E1F741E0232B09F440E062E033C050E09A0186E0359527958A956C
:20106000E1F741E0232B09F440E069E026C050E09A0106E0359527950A95E1F741E0232BC0
:2010800009F440E06BE019C050E09A0116E0359527951A95E1F741E0232B09F440E06DE068
:2010A0000CC050E09A01B6E035952795BA95E1F741E0232B09F440E06EE08A899B89DF91D5
:2010C000CF911F910F910C945F1250E0A3E055954795AA95E1F768E0DC0152968D919C9167
:2010E00053977BCF50E0F3E055954795FA95E1F765E071CF242F220F40E031C0242F220FEE
:2011000043E036C063E0559547956A95E1F76AE064CF33E0559547953A95E1F767E05DCF66
:2011200050E023E0559547952A95E1F762E053CF50E093E0559547959A95E1F763E04BCFEE
:2011400050E083E0559547958A95E1F764E043CF242F220F44E003C0242F220F43E060E097
:2011600008C0242F220F42E003C0242F220F45E061E08A899B89DF91CF911F910F910C945D
:201180003012F80182819381DC01ED91FC910280F381E02D6C2F0995CF5FC03891F7DF91BB
:2011A000CF911F910F910895603128F4FC01828993890C94F2120895CF93DF93FC01168267
:2011C0001782108611861786168680E09DE7A0E0B0E082879387A487B587EC54FF4FC081C3
:2011E000D181198680E18C871D86CE010E945D0D8E87DF91CF910895CF93DF93FC01168221
:201200001782108611861786168680E096E0A0E0B0E082879387A487B587EC54FF4FC08190
:20122000D181198680E18C871D86CE010E945D0D8E87DF91CF9108950895FC018481958194
:20124000FC01E756FF4F308123E0231B20833D976F5F81E090E002C0880F991F6A95E2F715
:201260000197918380830895DC011696ED91FC9117970088F189E02D6F7061830895CF930F
:20128000DF93EC01EC81FD81E755FF4F60816069EE81FF81808991890E944910EE81FF81D4
:2012A0006D85808991890E944910EE81FF816FE780899189DF91CF910C94E80ECF93DF937C
:2012C000662321F0DF91CF910C943F09EC01EC81FD81E755FF4F60816068EE81FF818089B9
:2012E00091890E944910EE81FF816D85808991890E944910EE81FF8160E080899189DF9118
:20130000CF910C94E80EDF92EF92FF920F931F93CF93DF938C01D62EDC011C96EC901C97DD
:201320001496CD91DC911597CD55DF4FFF24F394F9821B8241E06E2D8A810E94AE128A8344
:2013400040E06E2D0E94AE128A83F882D8011696ED91FC9117976D2D80899189DF91CF911E
:201360001F910F91FF90EF90DF900C944910242FDC011696ED91FC911797462F67898289A2
:2013800093890C943012EF920F931F93CF93DF93EC0161112BC0EE81FF81868990E0AC0141
:2013A00063E0559547956A95E1F7FE01E40FF51F228530E073E0440F551F7A95E1F7841BF0
:2013C000950BA90102C0559547958A95E2F740FF61C04C858C819D81EE24E39402E0242F29
:2013E00068E08C569F4F0E94B21554C0623009F051C0EE81FF8127894C858C819D8153E0EE
:20140000E52E211102C001E001C002E0242F68E082569F4F0E94B215EE81FF810289138961
:20142000868597850E940433C0E00E94FF32492F4595459545956C2FC8010E94BF128BEFE2
:201440008C0F843078F00E94FF32990F880B990F982F881F41E0892B09F440E06C2FC8015B
:201460000E945F12CF5FCF3001F7D0E0C0E00E94FF32880F892F881F990B282F4C2F6D2F09
:20148000C8010E943012CF5FC63089F7D13011F0D1E0ECCFDF91CF911F910F91EF90089551
:2014A000AF92BF92CF92DF92EF92FF921F93CF93DF93CDB7DEB7C554D1090FB6F894DEBF36
:2014C0000FBECDBF5C0188E0E2E1F1E0DE019E9601900D928A95E1F71EAA1FAA6E0188E3B5
:2014E000C80ED11C8CE0F60111928A95E9F78FEF88AF8EAF26961FAE1EAE2697CE018E962D
:201500000E94F21219827E01F2E0EF0EF11C10E0103130F4612FCE018E960E9496121AC033
:20152000163120F480EF810FF60108C01C3160F48AEE810FEEE3F0E0EC0FFD1FE80FF11D2C
:201540009081892F869506C064EE610FCE018E960E944812F70181937F011F5F1C32C1F621
:201560004DE250E0BE016F5F7F4FF501808991890E94EB0F26968EAD9FAD2697009711F064
:201580000E945938CB5BDF4F0FB6F894DEBF0FBECDBFDF91CF911F91FF90EF90DF90CF9021
:2015A000BF90AF900895CF92DF92EF92FF920F931F93CF93DF9300D0CDB7DEB78C0161110C
:2015C000B7C0DC011696ED91FC911797E6882E2D30E0B90183E0759567958A95E1F7A60FAA
:2015E000B71F1A968C9190E053E0660F771F5A95E1F7261B370B02C0959587952A95E2F7B0
:2016000080FF6DC0F801A481B581AC56BF4F413019F482E08C93BCC012961C921297E8E375
:20162000F9E0E49111968C911197E823EC93D80114968D919C911597FC01EC56FF4F21E05E
:201640002083F397808191811696ED91FC911797813D974080F18689883089F08F30D9F017
:20166000853009F095C06FE0828993890E949612682FF801868197810E94500A89C082E051
:20168000898341E050E0BE016F5F7F4F808991890E94EB0F7DC06FE0828993890E949612D6
:2016A000D8011696ED91FC911797682F828993890E94DA116DC086898F3009F069C06FE035
:2016C000828993890E949612D8011696ED91FC911797682F828993890E94F21259C041306D
:2016E00009F056C0B6E0EB1207C00088F189E02DF084F426F0860FC0C288D3886E2DC60198
:201700004A830E9448124A81F82EF4264F2D6E2DC6010E945F12F80124813581F901EC5674
:20172000FF4FFF2011F082E001C081E0808330C06130C1F4DC011496ED91FC9115974130CF
:2017400049F4128AE756FF4F82E08083C8010E943F091EC0628BE756FF4F608360E00E94F2
:201760005E0916C06230A1F4413091F4DC011696ED91FC9117978789642F681B678B808DA8
:20178000918DDC01ED91FC910480F581E02D09950F900F90DF91CF911F910F91FF90EF9032
:2017A000DF90CF900895CF92DF92FF920F931F93CF93DF936C01F42ED22FC62FFC1680F02C
:2017C000F601028913896C2FC8010E9448128D1729F04D2F6C2FC8010E945F12CF5FEECFF0
:2017E000DF91CF911F910F91FF90DF90CF900895CF93DF93EC01E62FF0E0EE0FFF1FE65CCC
:20180000F64F85919491FE01E357FF4F208131818217930771F0248135818217930749F013
:20182000918380833383228314861386CF010E94B90E81E088A789A78FA1882311F01DA26F
:201840001CA281E08EAB8FAB8DA9882311F01BAA1AAADF91CF910895FF920F931F93CF93D7
:20186000DF93EC016E8BE88DF98D0190F081E02D008111818A899B890E949612482F6E8904
:20188000888D998DF8010995088D198DFE886F2D8A899B890E944812D801ED91FC91028080
:2018A000F381E02D482F6F2DC801DF91CF911F910F91FF9009941F93CF93DF93EC0161119A
:2018C00008C0642F8E819F81DF91CF911F910C942C0C613039F5EC81FD81E459FF4F8081F0
:2018E0008130B1F48D8581508E37E0F4122F60E0CE010E945E098D85112311F08F5F01C0C7
:2019000081508D87CE01DF91CF911F910C943F09EE81FF81668982899389DF91CF911F9126
:201920000C94BF12DF91CF911F9108951F920F920FB60F9211242F933F934F936F937F93A2
:201940008F939F93AF93BF93EF93FF9380918201882349F0609102018091F3010E94B2378F
:20196000992309F45AC03091F30131110FC080918301882331F081E080938701109283014B
:2019800005C08091870181111092870180918701E091F101F091F2018823D1F0A09185019A
:2019A000B091860111968D919C911297009721F0DC01A30FB11D2C9181819281009721F045
:2019C000FC01E30FF11D208320582093B4000BC081819281009721F0FC01E30FF11D408142
:2019E00040584093B40090910401209105018091F301820F89238093F301FF91EF91BF9142
:201A0000AF919F918F917F916F914F913F912F910F900FBE0F901F9018958091000190911C
:201A20000101909389008093880080910201809305011092820197CFFC013F9620E1DF01F2
:201A4000322F1D923A95E9F77096DF011D922A95E9F720E030E040E0DC011A96ED91FC91CB
:201A60001B972038310581F0DF01A20FB31F5C91552379F0DC01A40FB11D47FDBA951F96DE
:201A80002C934F5F40312CF0E058FF4F2FE730E00FC02F5F3F4FE0CFDC01A30FB11D37FD75
:201AA000BA955F962C933F5F303134F4215021F042914423D9F3F0CF0895CF93DF93DC0167
:201AC00017965C911797552311F040E201C040E130E061E07EE0DF968C91DF9719969C91AE
:201AE0001997882391F0FD01E90FF11D97FDFA9587A518162CF48150FD01E80FF11D1AC0BB
:201B00008095FD01E80FF11D1CC01296EC91129780E1E89FF0011124E90FF11D97FDFA95CC
:201B2000E650F54FE4911E163CF4E150ED01CE0FD11DFE01878506C0E095ED01CE0FD11D69
:201B4000FE01878D511106C09F3091F419961C9219971DC018962C91189721110BC09F3026
:201B600039F419967C93199718966C9318970FC09F5F0AC0911107C019966C931997189662
:201B80001C92189704C0915019969C931997811103C03F5F34139FCFDF91CF910895EF921F
:201BA000FF920F931F93CF93DF93EC01FC01EE53FF4F8081861708F460838E010C541F4F19
:201BC000F80180819181FC012281211104C0CE010E94F80B02C00E941C0DF8010081118156
:201BE000F80182819E0120543F4F7901882361F0F9018081811108C0E889F98985858130CF
:201C000019F48481882361F0E889F9898585F7018083DF91CF911F910F91FF90EF900895F3
:201C20001E821F82188619861F861E86F801118680E184871586C8010E945D0DF80186876B
:201C4000E3CF0E94F1381F920F920FB60F9211242F933F938F939F93AF93BF9380917E010E
:201C600090917F01A0918001B09181013091850323E0230F2D3720F40196A11DB11D05C070
:201C800026E8230F0296A11DB11D2093850380937E0190937F01A0938001B09381018091E6
:201CA000810390918203A0918303B09184030196A11DB11D8093810390938203A093830360
:201CC000B0938403BF91AF919F918F913F912F910F900FBE0F901F901895CF93DF93EC01A2
:201CE0006883862F90E00E94C4379A838983DF91CF9108951F93CF93DF93EC01DB0120E052
:201D00008C91281750F56981822F0E94B23711964D915C911297911117C04115510521F0AB
:201D2000FA01E20FF11D30818881E32F032E000CFF0B082E02C0F595E7950A94E2F71E2FD4
:201D400001C0110F8A95EAF74115510521F0420F511DFA0110832F5FD3CFDF91CF911F91E8
:201D60000895FC0180819181009711F00C9459380895CF93DF93EC01AF81B885109719F46E
:201D80001A86198622C08E818823E9F0488159818A819B81EC81FD818417950738F49A01DC
:201DA0002E1B3F0B0E949D339F0106C09F01241B350B0E949D339A0140E050E00E947B33EC
:201DC0003A87298702C0BA87A987DF91CF910895FC01462F603F70F110928003603FA9F41F
:201DE00081E0858316828FEF80930701809306018085882309F4EEC082819381DC01ED9162
:201E0000FC910084F185E02D14C0673F09F0E2C08581882309F4DEC015828085882309F489
:201E2000D9C082819381DC01ED91FC910484F585E02D099467FF0BC06093800381E0809343
:201E40007F0310927E0310927D03158208958581882331F1668181E0860F8683813019F410
:201E6000409307010895823019F44093060108959091070180819813ADC090910601878142
:201E80009813A8C08085882309F4A4C082819381DC01ED91FC9162500284F385E02D0994C5
:201EA00080918003882309F495C090917F039923C1F060937E0310927F03DF01A257BF4F02
:201EC0009C91992309F486C09181906C891382C082819381DC01ED91FC910488F589E02DD4
:201EE000099460937D039181292F206982131BC06623C9F060917E03DF01A60FB11D1E96A4
:201F00008C911E9781115FC081E01E968C9385858F5F858782819381DC01ED91FC91019076
:201F2000F081E02D2EC0392F3068831721F082131AC0411118C060917E03DF01A60FB11D1C
:201F40001E968C911E978823F1F11E961C9285858150858782819381DC01ED91FC910280A4
:201F6000F381E02D2FC0292F206B82130CC082819381DC01ED91FC910088F189E02D6091AE
:201F80007E03099520C0906E89131DC082819381DC01ED91FC91411105C00288F389E02DA2
:201FA00061E810C04F3729F40288F389E02D6FE709C0642F70E060547109660F771F02888D
:201FC000F389E02D099510927E0310927D0381E080937F030895AF92BF92DF92EF92FF92ED
:201FE0000F931F93CF93DF931F92CDB7DEB78C01D62E7A01DC0112968D919C911397DC018C
:20200000ED91FC910684F785E02D60EF79830995F80182819381DC01ED91FC910684F785BB
:20202000E02DD8016C910995F80182819381DC01ED91FC910684F785E02DD80117966C9191
:202040000995AD2C7981B72EEA0CFB1CF80182819381AE14BF0459F0F50161915F01DC011A
:20206000ED91FC910684F785E02D0995EFCFDC01ED91FC910684F785E02D67EF0F90DF9186
:20208000CF911F910F91FF90EF90DF90BF90AF900994FC01683F48F16C3F28F46A3F60F447
:2020A000683F21F008956C3FB1F0089581859285019692878187089512861186148613860E
:2020C00081E0848382819381DC01ED91FC910480F581E02D09C0148282819381DC01ED91C1
:2020E000FC910680F781E02D09940C94E80E8F929F92AF92BF92CF92DF92EF92FF92CF93EB
:20210000DF93EC0188819981AA81BB81860F911DA11DB11D88839983AA83BB83CC80DD80CC
:20212000EE80FF808C159D05AE05BF0540F08C199D09AE09BF0988839983AA83BB83888163
:202140009981AA81BB81009720E1A207B105A8F4009728E0A207B10590F4009724E0A207A5
:20216000B10578F4009722E0A207B10560F4009721E0A207B10518F008C035E007C034E03A
:2021800005C033E003C032E001C031E040E150E0431B5109BC01CD0104C0660F771F881FB6
:2021A000991F4A95D2F74601570104C0B694A794979487943A95D2F7A50194010E947B336E
:2021C00039872887DF91CF91FF90EF90DF90CF90BF90AF909F908F900895CF92DF92EF9218
:2021E000FF920F931F93FC018585882309F46FC08485823071F130F4882309F45FC0813063
:2022000041F065C0833009F441C0843009F443C05EC020813181A62FB0E00E949D334085F6
:202220005185AFEFBFE78D01041B150B012E000C220B330B601771078207930728F082E085
:202240008487B187A08743C0640F751F718760873EC022813381A62FB0E00E949D3320855A
:202260003185A481B581A9014A1B5B0B6A01550FEE08FF086C157D058E059F0528F083E057
:202280008487B187A0871CC0C9011DC0848195819187808715C026813781A62FB0E00E94DC
:2022A0009D33408551858A01052E000C220B330B601771078207930728F01486118610868D
:2022C000158605C0CA01861B970B918780871F910F91FF90EF90DF90CF900895DC011C9619
:2022E0008C911C9719962C911997813099F4822F922F990F990B97FF03C0919581959109C7
:20230000EFE7F0E0E81BF109E65EF34F9491EFE7E91B0DC0E22FF22FFF0FFF0BF7FF03C0C5
:20232000F195E195F109FF27E65EF34FE4911A968C91882319F08E2F819508958E2F08953B
:20234000CF92DF92EF92FF92CF936A017B01C22F682F880F770B880B990B0E94023520E09F
:2023600030E04EEF52E40E941E34A70196010E946A360E9498346B017C016C2F70E080E0C3
:2023800090E00E9400359B01AC01C701B6010E946A3620E030E040E85FE30E94AC330E944F
:2023A000D7360E94D134862FCF91FF90EF90DF90CF900895EF92FF921F93CF93DF93CDB7BF
:2023C000DEB766970FB6F894DEBF0FBECDBFFC0186E1689FB00111249F01CE0101967C0150
:2023E00048E0480FD9015D919D01D7015D937D014A13F8CF9F01265F3F4FAE01475F5F4FD8
:202400007F01B0E1EB0EF11CD9011D919D01DA011D93AD012E153F05B9F79E01215F3F4F62
:20242000AF014A5E5F4FD7011D917D01D9011D939D01E416F506B9F720852D8B21852E8B09
:2024400046E150E00E94273366960FB6F894DEBF0FBECDBFDF91CF911F91FF90EF900895BB
:20246000FC0136E0639FE00DF11D1124E40FF11D2287DC0156968D919C915797009739F0AB
:20248000DC01ED91FC910480F581E02D09940895262F30E043E0359527954A95E1F7820FBD
:2024A000931FFC01808590E0F8EF2F9F600D112402C0959587956A95E2F7817008950F9391
:2024C0001F93E62FF0E023E0F595E7952A95E1F7562F28EFE29F500D1124E80FF91F01E026
:2024E00010E020E030E004C0000F111F221F331F5A95D2F7442319F05085052B03C00095C1
:20250000208502230087DC0156968D919C915797009749F0DC01ED91FC910280F381E02DAD
:202520001F910F9109941F910F910895DC01262F2170E22FF0E0E85CF64F849170E0759525
:202540006795A60FB71F9C91892390E0220F220F02C0959587952A95E2F70895E42FF0E029
:20256000E85CF64FE4919E2F90958923440F440F01C0660F4A95EAF76E23862B0895EF92C3
:20258000FF920F931F93CF93DF937C01162F042FC62FD0E0D595C795462F4170CE0DDF1D25
:2025A000602F88810E94AE128883D70156968D919C915797009779F0DC01ED91FC910190A0
:2025C000F081E02D402F612FDF91CF911F910F91FF90EF900994DF91CF911F910F91FF9004
:2025E000EF9008956F927F928F929F92AF92BF92CF92DF92EF92FF920F931F93CF93DF93BD
:20260000CDB7DEB766970FB6F894DEBF0FBECDBF7C0186E1689FB001112446E150E0CE0166
:2026200001960E940F33FE0131965F01912C98E3C92E99E0D92E09E319E03501F601449163
:20264000892C880CF50181915F014823682DC7010E94BF12F8014491F3018081482350E030
:2026600084E0559547958A95E1F761E0680DC7010E94BF129394F8E09F12DFCF08E010E012
:20268000E1E0F0E0EC0FFD1FE00FF11F48EF400F208160E0C7010E9430120F5F1F4F0E3066
:2026A000110571F7E1E0F0E0EC0FFD1FE00FF11F42EF400F208161E0C7010E9430120F5F79
:2026C0001F4F0431110571F700E010E04D8950E0002E02C0559547950A94E2F74170602F96
:2026E000C7010E945F120F5F1F4F0830110571F700E010E04E8950E0002E02C055954795E0
:202700000A94E2F7417068E0600FC7010E945F120F5F1F4F0830110569F766960FB6F89428
:20272000DEBF0FBECDBFDF91CF911F910F91FF90EF90DF90CF90BF90AF909F908F907F90BC
:202740006F900895CF92DF92EF92FF920F931F93CF93DF93CDB7DEB78C01EDB6FEB6DC01F7
:202760004C9114968D919C911597FC01649FE00DF11D1124BF0150E02DB73EB7241B350B63
:202780000FB6F8943EBF0FBE2DBF8DB79EB701966C010E940F3390E0F80180819817B0F4F4
:2027A000292F30E0F601E20FF31F8081D8011696ED91FC911797418152814115510521F026
:2027C000FA01E20FF31F80839F5FE6CF0FB6F894FEBE0FBEEDBEDF91CF911F910F91FF9011
:2027E000EF90DF90CF900895BF92CF92DF92EF92FF920F931F93CF93DF93CDB7DEB7DC019C
:202800000DB71EB79C9114962D913C911597A901699F400D511D1124BA01492F50E0EDB768
:20282000FEB7E41BF50B0FB6F894FEBF0FBEEDBF2DB73EB72F5F3F4F7901690120E030E074
:20284000291790F41696ED91FC9117970180F281E02D309719F0E20FF31FB080F601B19211
:202860006F012F5F3F4FECCFC7010E9427330FB6F8941EBF0FBE0DBFDF91CF911F910F9166
:20288000FF90EF90DF90CF90BF9008951F920F920FB60F9211242F938F939F93EF93FF9359
:2028A0008091C0009091C6008091D6018F5F8F7320910301821304C084E08093950108C0A5
:2028C000E091D601F0E0EA56FE4F90838093D601FF91EF919F918F912F910F900FBE0F902B
:2028E0001F9018951F920F920FB60F921124CF92DF92EF92FF920F931F932F933F934F93E1
:202900005F936F937F938F939F93AF93BF93CF93DF93EF93FF93E9B0E0940E2D10E0C801E0
:2029200026E0959587952A95E1F7817080938E01CBE7D3E0A9E7B3E064E17CE040E050E0A8
:20294000FA01E85EF34FF490FE208881F81609F43CC0FB01849131969491F80102C0F59500
:20296000E7958A95E2F7E170FF27EE0FFF1FEE0FFF1F680102C0D594C7949A95E2F7C60178
:202980008170992723E0880F991F2A95E1F78E2B9F2B2C9130E03595279535952795822B94
:2029A000932B8C93FC01EC5FF34F8491FA01EE0FFF1FE857FE4F208131816901C81AD10881
:2029C00087FDD394D182C082F882219611966E5F7F4F4130510519F041E050E0B1CFFF91D3
:2029E000EF91DF91CF91BF91AF919F918F917F916F915F914F913F912F911F910F91FF9058
:202A0000EF90DF90CF900F900FBE0F901F9018951F920F920FB60F9211248F939F93EF933F
:202A2000FF9383B18095982F9170ECE8F1E09083869581708183FF91EF919F918F910F902C
:202A40000FBE0F901F9018951F920F920FB60F9211248F93EF93FF93E0917803F0E08091BE
:202A60007900E157FE4F8083809177038F5F8A3018F48093770302C010927703E0917703C0
:202A8000F0E0E650F44FE491E09378038091780380937C0080917C00806480937C0080915E
:202AA0007C00806280937C008FE880937A0080917A00806480937A00FF91EF918F910F905A
:202AC0000FBE0F901F9018952A98660F60646EBD0DB407FEFDCF4EBD0DB407FEFDCF2EBDEE
:202AE0000DB407FEFDCF3EBD0DB407FEFDCF2A9A0895FC01EC57FF4FDC01A755BF4F21E0E0
:202B000030E0A9010C9002C0440F551F0A94E2F751834083FC014585E457FF4F042E02C084
:202B2000220F331F0A94E2F731832083442319F0413061F00895FC01E855FF4F20812038F4
:202B400059F4FC01E756FF4F81E00AC0FC01E655FF4F20812034A9F3FC01E756FF4F83E073
:202B600080830895CF92DF92EF920F93CF93DF931F92CDB7DEB76C01842FF6016283148290
:202B800041E0682F838129830E94AE12F601838340E02981622F0E94AE12F601838341E093
:202BA000602F81810E94AE12F601818340E06E2D0E94AE12F601818300830F90DF91CF911D
:202BC0000F91EF90DF90CF900895CF93DF93CDB7DEB7C755D1090FB6F894DEBF0FBECDBF41
:202BE000789484B5826084BD84B5816084BD85B5826085BD85B5816085BD80916E008160F7
:202C000080936E001092810080918100826080938100809181008160809381008091800070
:202C20008160809380008091B10084608093B1008091B00081608093B00080917A008460E2
:202C400080937A0080917A00826080937A0080917A00816080937A0080917A00806880936E
:202C60007A001092C100E091DB01F091DC0181E081878091C00082608093C0001092C50076
:202C80008FE38093C4008091C10080618093C1008091C10088608093C1008091C10080681C
:202CA0008093C1008091C1008F7D8093C100E955FF4F8081811118C10091DD011091DE01A7
:202CC0008091B6008F7B8093B6008091B6008F7D8093B6008091B00081608093B000809148
:202CE000B00082608093B0008091B100877F8093B1008091B0008F7E8093B0008091B000A1
:202D000080628093B0008091B0008F7B8093B0008091B0008F778093B0008091B100816053
:202D20008093B1008091B1008D7F8093B1008091B1008B7F8093B100F894809180008E7F83
:202D400080938000809180008D7F8093800080918100886080938100809181008F7E8093F0
:202D6000810080918100816080938100809181008D7F80938100809181008B7F8093810069
:202D80008091000190910101909389008093880080916F00826080936F007894E12CF12C9D
:202DA00086E0A82EBE2CC12CD12CD8012D913C91119752960D90BC91A02DAC9CC001AD9C06
:202DC000900D1124A80FB91FAE0DBF1DF901828C938C1A962C914B2D6C2DC801F4010995FA
:202DE000CA94CD2821F0CC24C394D12CDECF2FEFE21AF20A36E0E316F104A1F6F12CD801D7
:202E0000ED91FC911197C688D7886F2D52968D919C9153970E949612482F6F2DC801F6017C
:202E200009956F2DD80152968D919C9153970E944812D801ED91FC91008CF18DE02D482FF4
:202E40006F2DC8010995F394B0E1FB12D8CF60E0C8010E942C0CF801178A808D918DDC011E
:202E6000ED91FC910480F581E02D60E00995E091DD01F091DE01A089B189E091DB01F09182
:202E8000DC01E755FF4F80818F7011968C93E091DD01F091DE010088F189E02DE257FF4FC0
:202EA0008091DB019091DC01DC01A655BF4F21E03C91311101C020E020834091E301A2E096
:202EC000EA2E01E0242F64E08C569F4F0E94B2154091E3018091DB019091DC01242F64E0F2
:202EE00087569F4F0E94B2158FB7F89440917E0150917F0160918001709181018FBF8091C7
:202F0000ED019091EE01A091EF01B091F001E42FE81BEEA78E0F911DA11DB11D8093ED01DD
:202F20009093EE01A093EF01B093F001E090DB01F090DC01F0E4DF2E870108551F4F80913A
:202F400003018F5F8F739091D601891313C0809195018823A9F1D7018D919C916091950180
:202F6000DC01ED91FC910484F585E02D09951092950126C080930301D7018D919C91E091F3
:202F80000301F0E0EA56FE4F6081DC01ED91FC910284F385E02D0995F8018081803861F457
:202FA000E0910301F0E0EA56FE4F80819091C00095FFFCCF8093C600DA94D110C0CFC7CFB1
:202FC0006090DB017090DC016301BEE1CB0ED11C8301065E1F4FE12CF12CEEA5AE2EB12CB3
:202FE000552453944301F7EA8F0E911C6E2DF701E157FE4F2081D6012C93F6013397308141
:20300000822F90E0831B910997FF03C0919581959109059754F0D8018C91811106C05C920C
:2030200013961C921E92129713C0D8018C91882379F012968D919C9113978A0D9B1D13966E
:203040009C938E931297803D974010F0D8011C92D8018C91882399F0231789F02083F401E7
:20306000808181110CC0D3018D919C91DC01ED91FC910480F581E02DD6014C910995BFEFE3
:20308000EB1AFB0AEBE0CE0ED11C055F1F4FF6E0EF16F10409F0AACFE090DB01F090DC01D5
:2030A00057012EE5A20EB11C8701005A1F4F470135E6830E911CC12CD12C3EA5232F30E008
:2030C0003BA72AA7270147EA440E511CC70188559F4F3C01D701A655BF4F1D019701275542
:2030E0003F4F39AB28AB5C2DF601E457FE4F4081D5014C93413049F5F801818192812AA581
:203100003BA5820F931F9283818334972081318182179307D0F0D4018C91811116C04C9329
:20312000F2018081811111C0D7018D919C91DC01ED91FC910280F381E02D6C2D6896CFAE16
:203140006897099568965FAD6897F80180819681891720F4FEA58F0FD8018C93F8018081D1
:20316000891708F44BC0D5019C912291921709F445C0913059F421110EC0D80112961C920A
:203180001E921197D4011C9281E006C0911103C081E0213009F080E09083F8011082882374
:2031A00069F1D2018C9181110EC0F70180819181DC01ED91FC910190F081E02DD5014C91B0
:2031C000652F09951BC0B1E0CB16D104B9F4F5018081813099F40C9455291C92D3016C911C
:2031E000E8A9F9A98081682BD1018C91682B8FEF93E00E943733C7010E947915BFEFCB1AFE
:20320000DB0AEEE0AE0EB11C025F1F4FFEE08F0E911C23E0C216D10409F065CFE090DB0152
:20322000F090DC0167013CE0C30ED11C47014AE0840E911C87010E5F1F4FA12CB12C3701F9
:2032400057EA650E711C270189EA480E511CD701A855BF4FBBA7AAA71701BAEA2B0E311CF7
:203260006A2DF501EE0FFF1FE857FE4F80819181F60130812291321738F0D80112969C938B
:203280008E931197D6011C92D6018C919081891720F4BEA58B0FF6018083D80111962D91F2
:2032A0003C91129713968D919C911497F901E81BF90BCF01F7FD039695958795959587950F
:2032C000009709F447C0D80114963C932E93139797FD04C021E0F401208302C0D4011C9260
:2032E000F60135972081222311F1F8019081890F8083F601339790813197992369F09081BE
:20330000891724F0891BD8018C9311C087FF0FC0890FF80180830BC09081891724F0915032
:20332000D8019C9304C087FF02C0F8011082F301808181110C947229D7018D919C91DC012C
:20334000ED91FC910680F781E02DD4012C91D8014C910995FBE0CF0ED11C2BE0820E911C84
:20336000055F1F4FAA94AB2821F0AA24A394B12C77CF8091DB019091DC01FC01E555FF4FC1
:2033800020814EA5240F208360E02081203120F0205120836F5FF9CF662309F430C1DC0183
:2033A000AC57BF4F72E0062F10E020E030E01296ED91FC911397E20FF31F4081442309F4F0
:2033C00081C07901EE0CFF1C1696ED91FC911797EE0DFF1D40815181400F511F51834083B8
:2033E0001496ED91FC911597E20FF31F4081E9E3F9E05491E8E3F9E0A490CD90DC901197D5
:20340000022E02C0D694C7940A94E2F71696ED91FC911797EE0DFF1DC0FE2AC0E080F18089
:20342000452350E0689413F8559547951694E1F7E416F50608F446C0E41AF50AF182E082DC
:20344000C12CD12C7601C394022E04C0CC0CDD1CEE1CFF1C0A94D2F7A60140955095ED9184
:20346000FC9111974E235F2311965C934E931FC0C080D1804A2150E0C416D50618F1C41A06
:20348000D50AD182C082C12CD12C7601C394022E04C0CC0CDD1CEE1CFF1C0A94D2F74D91D1
:2034A0005C911197C42AD52A1196DC92CE921296ED91FC911397E20FF31F40814F3F11F065
:2034C000415040832F5F3F4F2031310509F06FCF1896713011F071E068CF7C01F6E9EF0E8D
:2034E000F11CDC01A856BF4F8C010C561F4F6C0127EAC20ED11CF7012081222309F43FC064
:203500007C91760F7C93F8019080FD0133974081E9E3F9E02491242330E0E4E0359527957D
:20352000EA95E1F7822EE8E3F9E0A490A422FD013197B080E9E3F9E044914B2150E0F4E006
:2035400055954795FA95E1F7E8E3F9E06490921202C0741738F49A1012C0B6207B1578F03F
:20356000981005C0741B7C93F801A08204C07B197C93F8012083F701208121502083F5E0A0
:20358000EF0EF11C15960B5F1F4FAC15BD0509F0B2CFDC01AD55BF4F11969C91119799237C
:2035A00071F113968C911397680F13966C93139712968C911297E9E3F9E02491E8E3F9E004
:2035C00034914C91442361F08223282F30E054E0359527955A95E1F7621788F0621B04C0D2
:2035E0008323681760F0681B13966C93139781E048274C939F3F19F0915011969C93E090C4
:20360000DB01F090DC01F701EC57FF4F008111818091E7019091E8010817190751F09801B9
:2036200042E160E0C7010E9464151093E8010093E701F701E457FF4F008111818091E901AE
:203640009091EA010817190751F0980142E161E0C7010E9464151093EA010093E901F701FB
:20366000EC56FF4F8081982F9D7F913019F000E010E002C002E010E08250823008F40160C7
:20368000F701E756FF4F8081982F9D7F913009F408608250823008F40460F701E256FF4F3B
:2036A0008081813091F0823091F0833089F48091E6018F5F833018F48093E60102C0109271
:2036C000E6018091E601823010F4006201C00064F701ED55FF4F8081811100618091EB0155
:2036E0009091EC010817190751F0980142E162E0C7010E9464151093EC010093EB01E091DB
:20370000DB01F091DC01E955FF4F808181110C944B292090DD013090DE01D1015096ED91D9
:20372000FC9151972481C1010696222341F0218532854385622F641B2387348701C06EA52D
:203740000E947710F1014685578581010B571F4FF801A181B2819A010E949D33DC01CB0151
:20376000038004C0B695A795979587950A94D2F7682F6F736783E48120E4E29FF001112459
:20378000E60FF11DE85CFE4FE491D8011596EC93159716968C911697882319F0E195159626
:2037A000EC93F101EC54FF4F00811181F8018281882309F448C0A481B5819A010E949D33E3
:2037C000DC01CB01068004C0B695A795979587950A94D2F7F82FFF70FF2ED8011C968C9155
:2037E000F81789F12F2F281B27FD205FE12CE2166CF4C80168962FAF68970E945D0DF801EE
:203800008687E39468962FAD6897F1CFD8011E964C911E97411104C01D968C91882381F06A
:20382000F80180819181DC01ED91FC910190F081E02DD8011D966C910995F801868585874E
:20384000D8011C96FC92F1017C966196FFAFEEAF61976EA5CF010E94ED106EA58101065D97
:203860001F4FC8010E94ED10F101E657FF4F20812F962FAF2F97C8010E946E1123968FAF0A
:203880002397D1015A960D90BC91A02DBDAFACAF2D913D914D915C9122962CAF3DAF4EAF5B
:2038A0005FAF2297F101E45BFF4F1081112309F488C0DA01C90106E0B695A795979587955E
:2038C0000A95D1F749015A01B694A79497948794881A990AAA0ABB0A3296808181110DC02B
:2038E0003697A081B0E01196A50194010E947333C72ED82EE92EFF2407C0F101E75BFF4FA2
:20390000C080D180E12CF12CF101EC5AFF4F80818823F9F031964081518162817381F101AE
:2039200026AD2F968FAD2F970E94A011A82FB0E01196A70196010E9468336B017C01D10155
:20394000DF960C9004C0F694E794D794C7940A94D2F7F101E15BFF4F80818823F9F0319688
:203960004081518162817381F10126AD23968FAD23970E94A011A82FB0E01196A7019601C9
:203980000E9468336B017C01D101DF960C9004C0F694E794D794C7940A94D2F78C149D04E7
:2039A000AE04BF0410F475016401B4E1CB16D104E104F10448F4F4E1CF2ED12CE12CF12C59
:2039C00003C0C12CD12C760122966CAD7DAD8EAD9FAD22970E9400359B01AC016BED7FE0B1
:2039E00089E490E40E941E344B015C01F101E75AFF4F20813181428153812AA73BA74CA738
:203A00005DA73E97608170E080E090E00E940035F101EC5BFF4F20813181428153810E94E2
:203A20006A36F101E05CFF4F20813181428153810E94AD3368AB79AB8AAB9BABC701B601CD
:203A40000E9400356B017C01812F90E0FC013197EF30F10508F0B7C5EC5CFF4F0C94BE370D
:203A6000A5019401C501B4010E94AD33A70196010E946A364B015C010E94FB3628A939A95E
:203A80004AA95BA90E941E3420E030E040E05FE30E946A366B017C01C501B4010E94193434
:203AA0004B015C019B01AC0160E070E080E89FE30E94AC332B013C0120E030E040E05FE33E
:203AC0000E946A36F101E759FF4F608371838283938334964082518262827382349660834D
:203AE0007183828393838101035A1F4F20E030E040E85FE3C701B6010E94AD33D8016D9316
:203B00007D938D939C9313970C5F1F4F20E030E040E050ECC501B4010E946A36F8016083BE
:203B20007183828393830C5F1F4FA7019601D6C0A5019401C501B4010E94AD33A701960151
:203B40000E946A364B015C010E94FB3628A939A94AA95BA90E941E3420E030E040E05FE397
:203B60000E946A366B017C01C501B4010E9419344B015C0120E030E040E85FE30E94AD330B
:203B80002B013C0120E030E040E05FE30E946A36F101E759FF4F60837183828393833496CC
:203BA00077FA709477F870944082518262827382349660837183828393838101035A1F4FA6
:203BC00020E030E040E85FE3C701B6010E94AD33F80160837183828393830C5F1F4F20E0A6
:203BE00030E040E050ECC501B4010E946A36D8016D937D938D939C9313970C5F1F4FA70139
:203C0000960160E070E080E89FE308C4A5019401C501B4010E94AD33A70196010E946A360E
:203C20004B015C010E94FB366B017C0128A939A94AA95BA90E941E3420E030E040E05FE30F
:203C40000E946A362B013C01C501B4010E9419344B015C0120E030E040E05FE3C701B601B5
:203C60000E946A36F101E759FF4F6083718382839383349610821182128213823496DC01D1
:203C8000CB01B05880839183A283B3837101FDE5EF0EF11C20E030E040E85FE3C301B2018F
:203CA0000E94AD33D7016D937D938D939C9313977101B1E6EB0EF11C20E030E040E050EC26
:203CC000C501B4010E946A36F701608371838283938381010B591F4FA301920160E070E022
:203CE00080E89FE3D1C2A5019401C501B4010E94AD33A70196010E946A364B015C010E9443
:203D0000FB3628A939A94AA95BA90E941E3420E030E040E05FE30E946A366B017C01C50171
:203D2000B4010E941934412C512CE0E86E2EEFE37E2EF101E759FF4F408251826282738225
:203D400020E030E040E050EC0E946A364B015C01F101E359FF4F60837183828393833496D4
:203D600040825182628273828101035A1F4FA3019201C701B6010E94AD33F8016083718380
:203D800082839383349680829182A282B382085F1F4FA7019601C301B20176C2A5019401D2
:203DA000C501B4010E94AD33A70196010E946A366B017C010E94FB3628A939A94AA95BA91F
:203DC0000E941E3420E030E040E05FE30E946A364B015C01C701B6010E9419346B017C013B
:203DE0002AA53BA54CA55DA5C501B4010E946A362B013C01810107591F4F20E030E040E873
:203E00005FE30E94AD33F801608371838283938320E030E040E050ECC701B6010E946A36C6
:203E20006B017C01F101E359FF4F6083718382839383085F1F4FA301920160E070E080E827
:203E40009FE30E94AC33D8016D937D938D939C9313972AA53BA54CA55DA5C501B4010E94BE
:203E60001E344B015C010451110920E030E040E85FE30E94AD33F8016083718382839383F1
:203E80003496C082D182E282F382085F1F4FA501940124CFA5019401C501B4010E94AD33AF
:203EA000A70196010E946A362B013C010E9419344B015C016AA57BA58CA59DA50E940937FC
:203EC0006B017C01C301B2010E94FB362B013C0120E030E040E85FE36AA57BA58CA59DA52A
:203EE0000E94AC336CAB7DAB8EAB9FABA50194010E946A362A966CAF7DAF8EAF9FAF2A97AF
:203F000020E030E040E85FE36AA57BA58CA59DA50E94AD3368AF79AF8AAF9BAFA501940106
:203F20000E946A362E966CAF7DAF8EAF9FAF2E97A7019601C701B6010E94AD336B017C01BB
:203F400028A939A94AA95BA9C301B2010E941E3420E030E040E05FE30E946A369B01AC014F
:203F6000C701B6010E946A362B013C012A962CAD3DAD4EAD5FAD2A9768AD79AD8AAD9BAD12
:203F80000E94AC336B017C01810107591F4FA30192010E94AD339B01AC016AA57BA58CA505
:203FA0009DA50E946A36F80160837183828393830C5F1F4F2AA53BA54CA55DA5CA01B90192
:203FC0000E94AD334B015C012E962CAD3DAD4EAD5FAD2E976CA97DA98EA99FA90E94AC3328
:203FE0009B01AC01C501B4010E946A36D8016D937D938D939C9313970C5F1F4FA3019201C9
:20400000C701B6010E94AC339B01AC016AA57BA58CA59DA50E946A36F8016083718382839E
:2040200093832A962CAD3DAD4EAD5FAD2A9768AD79AD8AAD9BAD0E94AD334B015C017101C8
:20404000FDE5EF0EF11CA30192010E94AD33D7016D937D938D939C931397005111092E96AB
:204060002CAD3DAD4EAD5FAD2E976CA97DA98EA99FA90E94AD3320E030E040E050EC0E9467
:204080006A36F7C0A5019401C501B4010E94AD33A70196010E946A362B013C010E941934B8
:2040A0004B015C016AA57BA58CA59DA50E9409376B017C01C301B2010E94FB362B013C0137
:2040C00020E030E040E85FE36AA57BA58CA59DA50E94AC336CAB7DAB8EAB9FABA501940146
:2040E0000E946A362A966CAF7DAF8EAF9FAF2A9720E030E040E85FE36AA57BA58CA59DA50F
:204100000E94AD3368AF79AF8AAF9BAFA50194010E946A362E966CAF7DAF8EAF9FAF2E9783
:20412000A7019601C701B6010E94AD336B017C0128A939A94AA95BA9C301B2010E941E3441
:2041400020E030E040E05FE30E946A369B01AC01C701B6010E946A362B013C012A962CAD9F
:204160003DAD4EAD5FAD2A9768AD79AD8AAD9BAD0E94AD336B017C01810107591F4FA30174
:2041800092010E94AD339B01AC016AA57BA58CA59DA50E946A36F8016083718382839383F2
:2041A0000C5F1F4F20E030E040E050EC6AA57BA58CA59DA50E946A364B015C012E962CAD90
:2041C0003DAD4EAD5FAD2E976CA97DA98EA99FA90E94AD339B01AC01C501B4010E946A36E7
:2041E000D8016D937D938D939C9313970C5F1F4FA3019201C701B6010E94AC339B01AC0184
:204200006AA57BA58CA59DA50E946A36F80160837183828393832A962CAD3DAD4EAD5FAD45
:204220002A9768AD79AD8AAD9BAD0E94AC334B015C017101FDE5EF0EF11CA30192010E94A2
:20424000AD33D7016D937D938D939C931397005111092E962CAD3DAD4EAD5FAD2E976CA9CA
:204260007DA98EA99FA90E94AC339B01AC010E94AD33F80160837183828393830C5F1F4F89
:20428000A3019201C501B4010E94AC3396C1A5019401C701B6010E946A360E9449374B012A
:2042A0005C019B01AC010E946A366B017C01F101EF58FF4F60837183828393833897608302
:2042C000718382839383810103591F4F9B01AC010E94AD33F801608371838283938323EFBB
:2042E00034E045EB5FE3C501B4010E946A364B015C01005111099B01AC01C701B6010E94FD
:20430000AD3320E030E040E85FE30E94AD33D8016D937D938D939C9313970C5F1F4F20E006
:2043200030E040E85FE3C701B6010E94AC339B01AC010E94AD33F80160837183828393834D
:204340000C5F1F4FA5019401C701B6010E94AC3320E030E040E85FE32EC1A5019401C701DD
:20436000B6010E946A360E9449374B015C019B01AC010E946A3620E030E040E85FE30E94D2
:20438000AD336B017C0180E090E0A0E8BFE3F101E759FF4F80839183A283B3833896808397
:2043A0009183A283B38380E090E0A0E0B0EC349780839183A283B38323EF34E045EB5FE3CD
:2043C000C501B4010E946A364B015C018101035A1F4F9B01AC01C701B6010E94AD33F801E7
:2043E00060837183828393830C5F1F4F20E030E040E050E4C701B6010E94AC339B01AC0145
:204400000E94AD33D8016D937D938D939C9313970C5F1F4FA5019401C701B6010E94AC3324
:20442000F8016083718382839383CDC0A7019601C501B4010E946A360E9449376B017C01FD
:2044400020E030E040E450E40E946A364B015C01A70196010E946A366B017C01F101EF5866
:20446000FF4F6083718382839383389760837183828393839B01AC010E94AD332B013C0107
:20448000F101E359FF4F60837183828393838101035A1F4F20E030E040E85FE3C501B4016C
:2044A0000E94AD33A70196010E94AD33D8016D937D938D939C9313970C5F1F4F20E030E0EE
:2044C00040E050E4C301B2010E94AC33F80160837183828393830C5F1F4FA501940160E051
:2044E00070E080E89FE30E94AC33A701960163C0A7019601C501B4010E946A360E94493781
:204500004B015C019B01AC010E946A366B017C01F101EF58FF4F20E030E040E450E42083EC
:204520003183428353833897208331834283538380E090E0A0ECB0EC349680839183A2836D
:20454000B383C501B4010E946A364B015C018101035A1F4F9B01AC01C701B6010E94AD3328
:2045600020E030E040E450E40E94AD33D8016D937D938D939C9313970C5F1F4FA701960157
:20458000C701B6010E94AD3320E030E040EC50E40E94AC33F80160837183828393830C5FD3
:2045A0001F4FA5019401C701B6010E94AC3320E030E040E450E40E94AD33D8016D937D937F
:2045C0008D939C931397F101E35AFF4FC080D180E280F380810107591F4FA7019601F80177
:2045E00060817181828193810E941E34D8016D937D938D939C9313970C5F1F4FA7019601E3
:20460000F80160817181828193810E941E34D8016D937D938D939C9313970C5F1F4FA70160
:204620009601F80160817181828193810E941E34D8016D937D938D939C93139700511109BF
:20464000A7019601F80160817181828193810E941E34D8016D937D938D939C9313970C5FF7
:204660001F4FA7019601F80160817181828193810E941E34D8016D937D938D939C931397D4
:20468000085D1F4FF80184819581208131818217930779F1C184D284C114D10461F04385E5
:2046A0005485DA01EEA5AE0FB11DF801B487A387CA16DB0618F43583248323C0F801E28060
:2046C000F380A90160E070E09A01AB012E193F09410951090E946833960140E050E00E94ED
:2046E00049332E0D3F1DD80115963C932E93149708C0F801228133812817390711F093833A
:204700008283F101EF56FF4FE080F180BD96F182E0827897F182E0827B96D0804701A12CBC
:20472000B12C810106561F4FD80155968C9155978823F9F056964D915D916D917C9159973C
:204740001A962C912F968FAD2F970E94A011282F30E02F5F3F4FD7010E949D334B015C015C
:20476000F801038404C0B694A794979487940A94D2F7D80150968C9150978823F9F0519685
:204780004D915D916D917C91549714962C9123968FAD23970E94A011A82FB0E01196A5013A
:2047A00094010E9468334B015C01F801058004C0B694A794979487940A94D2F7DD20F1F02C
:2047C000D80116964D915D916D917C9119971A962C918D2D0E94A011A82FB0E01196A5019F
:2047E00094010E9468334B015C01F801038404C0B694A794979487940A94D2F7D8011F963A
:204800009C928E921E97AA24BB2453E0880C991CAA1CBB1C5A95D1F722962CAD3DAD4EADA2
:204820005FAD229782169306A406B50609F440C0ACADBDAD8D929D92AD92BC92139700E0F8
:2048400010E060E074E284EF90E0002E04C0660F771F881F991F0A94D2F7A50194010E944F
:204860007B332F3F310551F048F081E090E001C0880F0A95EAF78093020105C00F5F1F4F0D
:2048800008301105F1F621503109309301012093000181E08093820120910201ECADFDADD1
:2048A0009481291728F49091020194838093830160E28E010F5F1F4FC8010E946D0ED10150
:2048C0005496ED90FC905597F70183818823B9F1E680F780E114F10451F4F101E454FF4F24
:2048E0000190F081E02D808181117EC06BC0E016F10699F38A819B81009711F00E94593842
:20490000D7018C9189838C9190E00E94C4379B838A8340E08981481700F7842F90E0D701C6
:204920001196ED91FC911297E80FF91F50812A813B81F901E80FF91F50834F5FEBCFF70199
:2049400081818F30C9F48281811116C0D12CD7018C91D81610F60E94FF32880F892F881FBF
:20496000990B2A813B812115310521F0F901ED0DF11D8083D394EBCF20E0D7018C91281755
:2049800008F0ABCF822F90E0F7013281E181F0E040E1349FE00DF11D112435E0EE0FFF1F53
:2049A0003A95E1F7E80FF91FE85CFA4FE4914A815B814115510521F0DA01A80FB91FEC93F2
:2049C0002F5FDBCF918191110FC0D1015296ED91FC915397818586FF34C0B801C1018A5495
:2049E0009F4F0E947A0E2DC02F96BFAD2F972B2FBB0F330B21583F4F90E00196289FA001E3
:204A0000299F500D389F500D11246281852F0E94B2374381682F70E0242F30E0261737075D
:204A20000CF0482F80E090E0841778F62A813B812115310521F0F901E80FF91F1082019614
:204A4000F3CFF101E45BFF4F8081882309F421C118AE1CAA00E010E03196FFAFEEAF91018A
:204A60002B583F4F3BA72AA7A10143585F4F5FA74EA7C10187599F4F28969FAF8EAF2897F4
:204A8000D101A359BF4F2C96BFAFAEAF2C97B4966396FFAFEEAF63972C5F3F4F39AB28AB92
:204AA0004C51510965965FAF4EAF6597049767969FAF8EAF67975496BDAFACAFCAC0208100
:204AC0008A819B81222309F423C1009729F0FC01E10FF11D20812CAB3CA9632F330F770B2B
:204AE0007595679575956795072E000C880B990B0E9402356B017C01AAA5BBA58D909D9077
:204B0000AD90BC90AEA5BFA52D913D914D915C9126962CAF3DAF4EAF5FAF26972896EEAD5A
:204B2000FFAD289720813181428153810E946A362B013C012C96AEADBFAD2C972D913D919D
:204B40004D915C91C501B4010E946A369B01AC01C301B2010E94AD332B013C01E8A9F9A9EF
:204B600020813181428153816396AEADBFAD63976D917D918D919C910E946A369B01AC01AF
:204B8000C301B2010E94AD332B013C016596EEADFFAD6597208131814281538126966CADB6
:204BA0007DAD8EAD9FAD26970E946A369B01AC01C301B2010E94AC332B013C01ACADBDADD8
:204BC0002D913D914D915C916796EEADFFAD679760817181828193810E946A369B01AC01C7
:204BE000C301B2010E94AC33A8A9B9A98D929D92AD92BC921397EAA5FBA5C082D182E2825D
:204C0000F38226962CAD3DAD4EAD5FAD2697ACADBDAD2D933D934D935C931397EEA5FFA5D9
:204C200060837183828393830E94CA34603871050CF47CC06FE78A819B81009721F0FC0176
:204C4000E10FF11D6083AEADBFAD8C91811175C01F5F8981EEADFFAD181708F430CF8081CE
:204C60008823B9F0602F000F770B880B990B0E9402359B01AC0160E070E080E093E40E945E
:204C80001E344B015C01E12CF12C8981F81608F461C061968EAD9FAD61970E946E114FE7ED
:204CA00050E02F96BFAD2F974B1B5109B7FD5395F10120AD30E02F5F3F4F429FB001439F12
:204CC000700D529F700D1124672F7727082E000C990B97FF03C0919581959109D101D9962A
:204CE0004C9150E04F5F5F4F849F9001859F300D949F300D1124220F232F221F330B3195C9
:204D000010E0A0E04FEF50E0461B570B33276AC0009729F0FC01E10FF11D208128AF38AD66
:204D2000632F330F770B880B990BE2CE6038FFEF7F070CF080CF60E87ECF062E000C770B88
:204D400077FF03C071956195710906170CF080CF062F7ECF0A811B810115110521F0F8015D
:204D6000EF0DF11DE0806E2D0E2C000C770B880B990B0E940235A50194010E946A360E9437
:204D8000CA346038710534F46038FFEF7F071CF460E801C06FE70115110521F0F801EF0D32
:204DA000F11D6083F39471CF8A819B81009721F0FC01EA0FF11D10811403B001159F700DDE
:204DC0001124672F770F770B269F7001279FF00C369FF00C1124009721F08A0F911DFC0116
:204DE000F082AF5F8981A817F8F2D10198968C91F101E754FF4F0190F081E02D81110DC07A
:204E000082858111BBC0A085B18511960D90BC91A02D1C9281E08287B1C02281211104C0A3
:204E20008381882309F4AAC02F968FAD2F97815830E02F5F3F4F829FA001839F500D11241A
:204E40006481852F0E94B2372081682F70E0422F50E0461757070CF4822F811101C081E0E5
:204E60009091E501981748F4290F281B822FF12CD12CE12C50E040E072C0B92FB81B8B2FF6
:204E8000F6CF2A813B812115310521F0240F311DD9015C91052F052E000C110B2085318537
:204EA000D90111966D917C9112976115710529F09B01280F311DD901EC902E2D0E2C000CA0
:204EC000330B058002C0359527950A94E2F7200F311F203831050CF447C02FE7611571053A
:204EE00021F0690F711DDB012C932A813B812115310529F0B901640F711DDB01DC900D2DD7
:204F00000D2C000C110B078002C0159507950A94E2F760857185DB0111966D917C91129718
:204F20006115710521F0680F711DDB01FC906F2D0F2C000C770B068002C0759567950A94B6
:204F4000E2F7600F2115310521F0240F311DD9016C9321819F5F92238F5F82234F5F2981F2
:204F6000421708F48ECF07C02038BFEF3B070CF0B5CF20E8B3CF9093E5011286D10152960B
:204F8000ED91FC915397818586FD08C0BE016F5F7F4FC1018A549F4F0E947A0EF101E5548D
:204FA000FF4F408150E075E0559547957A95E1F7E0E020E030E81FE78981281778F58A8111
:204FC0009B81009721F0FC01E20FF11DE0816E2F0E2E000C770B042E02C0660F771F0A94AC
:204FE000E2F7603871053CF00097B1F0820F911DDC011C9311C06038BFEF7B073CF400973B
:2050000059F0820F911DDC013C9306C0009721F0820F911DDC016C932F5FCECFD1015A96E6
:20502000ED91FC915B9780918701811125C090E0209184018217D0F42A813B81211531058D
:2050400021F0D901A80FB11D9C91A0918501B091860111962D913C9112972115310521F0DC
:20506000D901A80FB11D9C938F5FE2CF80910201848381E0809383018A819B81009711F031
:205080000E9459380091DD011091DE01F801EA53FF4F8081882309F4FEC0108233978081A6
:2050A000823009F4E3C030F48823E9F1813009F469C0F1C0833009F49EC0843009F0EBC007
:2050C000F801EB53FF4FB080D8015496ED91FC915597C480D5801BA21CA21DA21FA21EA20D
:2050E00019A618A680E28AA383E090E00E94C4377C0160E20E946D0EF9A6E8A6DFA2CEA23A
:2051000060E0CE0182960E94A2136B2DCE0182960E94A21381E0898348A559A5FE0132961C
:2051200020E030E07BC0F801EC53FF4F8081882309F456C07801B5ECEB0EF11CF7016081E6
:20514000D80152968D919C9153970E94DA11F70180818F5F8083803120F493E099838A8381
:2051600006C0F70110821A82198284E0898342E050E0BE016F5F7F4FD80150968D919C9181
:20518000519787C06801B4ECCB0ED11CF60180818823C1F07801F5ECEF0EF11CD7016C9184
:2051A000F801848995890E94F413D7018C918F5F8C93803120F494E099838A8362C0D601C5
:2051C0001C920EC060E0F801828993890E949612682FD80154968D919C9155970E94F4136F
:2051E000F801808D918DDC01ED91FC910084F185E02D099550C0F801EB53FF4F6081C801BF
:205200000E94500A48C080E0805890E09595879581932F5F3F4F2032310561F0DA01119611
:205220008D919C911297009771F3820F931FDC018C91EACF41E250E0BE016F5F7F4FF801E2
:20524000808991890E94EB0F08A519A50115110511F1D80111968D919C911297009711F0EA
:205260000E945938C8010E94593815C0F801EB53FF4F1082319781E080831A82198283E04D
:20528000898342E050E0BE016F5F7F4FF801808991890E94EB0F80E090E0892B11F40C9474
:2052A00074170E9400000C947417D7011D968C91811109C0D3018C91803811F40C94ED1840
:2052C00020E8F3010CC0813011F00C94EE18D1018C91803411F40C94ED1820E4F1012083C8
:2052E0000C94EE18A114B104D9F4F8016081D2016C93F70180819181DC01ED91FC910084AE
:20530000F185E02D0995EAA5FBA56081D2018C91682BF1018081682B8FEF93E00E94373356
:20532000C7010E9479150C94AA190F931F93CF93DF93EC01362F423009F44DC028F4442399
:2053400061F0413031F1C8C0443009F49FC008F466C0453009F4A4C0BFC0FC01E85BFF4F0C
:20536000208361E0631BEA89FB8986E0DF01839FA00DB11D11241A962C91DF01869FA00D9D
:20538000B11D11241A968C91821709F4A5C040E01BC0FC01E55BFF4F2083642F631BEA8995
:2053A000FB8986E0DF01839FA00DB11D11241B962C91DF01869FA00DB11D11241B968C9160
:2053C000821709F489C041E0CF01DF91CF911F910F910C943012622F70E080E090E0311108
:2053E00008C0FE01E15BFF4F20838E01005B1F4F23C0C656DF4F288B0E9400352881398147
:205400004A815B810E946A3620E030E04FE753E40E941E34698B7A8B8B8B9C8B5DC0622F4E
:2054200070E080E090E031111BC0FE01EC5AFF4F20838E010B5A1F4F0E9400352AAD3BAD01
:205440004CAD5DAD0E946A3620E030E04FE753E40E941E34F80160837183828393833CC0AF
:20546000C656DF4F2D8B0E9400352E813F81488559850E946A3620E030E04FE753E40E94D8
:205480001E346E8B7F8B888F998F26C0611102C028AF22C0C454DF4FE881F98120831CC0FD
:2054A000611104C0C554DF4F288316C0C754DF4FE881F981228321110FC0838181110CC0BA
:2054C0008285811109C0A085B18511960D90BC91A02D1C9281E08287DF91CF911F910F9179
:2054E00008950F931F93CF93DF93EC01062F142F862F90E08E30910508F053C0FC01ED5BB9
:20550000FF4F0C94BE37EC89FD8942834AC0FE01E35BFF4F4083B8961082118212821382F4
:2055200034961082118212821382349610821182128213823496108211821282138231C032
:205540004CAB81E08FAB242F44E062E014C08C899D89DC0113964C931397442311F11196D2
:205560006C910E94A2131DC0FE01E557FF4F4083242F4AE069E0CE010E94D30B12C0FE01C8
:20558000EC54FF4F0190F081E02D4783242F4CE06BE0F1CFCE0183579F4FFC0146830E941B
:2055A000B90E8E8908130FC0888D998DDC01ED91FC910280F381E02D412F602FDF91CF912E
:2055C0001F910F910994DF91CF911F910F91089504970C94712AEF92FF920F931F93CF9383
:2055E000DF93EC01062F142F862F90E08F30910508F01CC1FC01EF5AFF4F0C94BE378C8947
:205600009D89DC0111964C93119713962C91222309F40CC1642F0E94A21308C1FE01E45BF3
:20562000FF4F4083842F90E0FC013597E730F105D0F4E05AFF4FDE01A75ABF4F0C94BE3791
:2056400047E25DE16EE973E409C049EA5EE963EE7FE304C040E053EF63EB70E44D935D93A7
:205660006D937C931397FE01EB58FF4F1082118212821382349610821182128213823496B1
:20568000108211821282138234961082118212821382CCC0E42FF0E0EE0FFF1FE652F54F9E
:2056A000859194919BA78AA71EC0E42FF0E0EE0FFF1FCF018652954FFC01259134913DA778
:2056C0002CA721E02FABFC018591949199AB88ABADC0E42FF0E0EE0FFF1FE654F54F85916E
:2056E00094919FA78EA781E08FABA0C0E42FF0E0EE0FFF1FE652F54F859194919D8F8C8F13
:205700000AC0E42FF0E0EE0FFF1FE652F54F859194919F8F8E8F81E089A788C0E42FF0E003
:20572000EE0FFF1FE654F54F8591949199A388A3F2CFE42FF0E0EE0FFF1FE652F54F8591DD
:2057400094919BA38AA3E7CFFE01E757FF4F40836DC0DE01AB57BF4F4C93842F90E0FC019A
:20576000EE0FFF1FE65BF54F2591349112963C932E931197FC01E65CF54FE4911396EC930E
:2057800055C0FE01EC54FF4FE080F180F7018281811105C0442319F0C7010E941C0DD70169
:2057A00012961C9343C0FE01EC54FF4FA081B18113964C931397842F90E0FC01EE0FFF1F42
:2057C000E658F54F2591349115963C932E931497FC01E659F54FE4911696EC9327C0E42FCC
:2057E000F0E0EE0FFF1FE656F54F25913491CE0183579F4FFC01308727830E94B90E16C08F
:20580000FE01EA54FF4F4283411103C0108281E00CC0842F83708C5F808381E0942F969581
:20582000969501C0880F9A95EAF781838E89081311C0888D998DDC01ED91FC910190F081A9
:20584000E02D412F602FDF91CF911F910F91FF90EF900994DF91CF911F910F91FF90EF9043
:20586000089504970C94EB2A662339F034E0FC0130A721E021A736AB27AB442319F0642F22
:205880000C94F80B089502970C94342C8091C00085FFFCCF6093C600089502970C94462C0E
:2058A000CF93DF93EC01AC81BD81A256BF4F12961C921297E8E3F9E0E49111969C91119722
:2058C000E923EC938C819D81FC01E256FF4F613011F482E001C081E08083DF91CF91089505
:2058E00002970C94502C663049F4DC011696ED91FC9117970088F189E02D4085FC01848108
:205900009581FC01EC56FF4F442311F082E001C081E08083089502970C94732CCF93DF93AC
:20592000DC011496ED91FC911597238942171CF02150258705C047FF02C0158601C0458706
:20594000E62FF0E0DF0123E0B595A7952A95E1F7EC01CA0FDB1F288530E053E0AA0FBB1F1F
:205960005A95E1F7EA1BFB0B02C035952795EA95E2F7DC011496ED91FC91159720FF0EC08A
:20598000148ADF01A457BF4F4F5F81E090E002C0880F991F4A95E2F701970CC081E0848B64
:2059A000DF01A457BF4F81E090E002C0880F991F4A95E2F78D939C93EC57FF4F81E090E0B3
:2059C00002C0880F991F6A95E2F791838083DF91CF91089502970C948E2CEF920F93FC0147
:2059E00044858481958122E0E22E01E0242F64E087569F4F0E94B2150F91EF9008950297B0
:205A00000C94ED2C08954F925F926F927F928F929F92AF92BF92CF92DF92EF92FF920F93E2
:205A20001F93CF93DF93CDB7DEB72E970FB6F894DEBF0FBECDBF88E591E09093D8018093CE
:205A4000D70184E791E09093DA018093D9018091A0028111E8C01092F6011092F8011092E4
:205A6000F7011092FA011092F90181E08093FB0190E19093FC018093FD011092FE011092A0
:205A8000FF01109200021092010210920302109202021092050210920402809306029093E1
:205AA0000702809308021092090210920A0210920B0284EF91E0E6E1F2E0AC01DA015996C2
:205AC0001C921E9258979F0128503109D9011C922F5F3F4FD9011C92DA015D961C921E92CF
:205AE0005C972D5F3F4FD9011C922F5F3F4FD9011C922F5F3F4FD9011C922F5F3F4FD901D3
:205B00001C921082455F5F4F3B96B2E046335B07A9F6EEE4F2E040ED57E024E111821082E4
:205B200053834283DC01A25ABF4F1C9211961C9211961C921086178213961C9211961C92B0
:205B400011961C9211962C9311961C923E960E9632E08E31930711F708E712E0D8011D92E1
:205B60001C9280E190E00E94C4379C01205F3F4FFC011192E217F307E1F7F80193838283E0
:205B800080E190E00E94C4379C01205F3F4FFC011192E217F307E1F7D80115969C938E93AE
:205BA000149780E290E00E94C4379C01205E3F4FFC0111921192E217F307D9F7F801978309
:205BC0008683085F1F4FF2E008381F0739F620E030E0C9018C509E4FFC01EC56FF4F1082BE
:205BE000319610823196108231961082319610822B5F3F4F2F30310561F71092970210925F
:205C0000980281E18093990210929A0210929B0210929C0210929D0210929E0210929F0257
:205C200081E08093A00284EF91E09093DC018093DB0180916F03811139C186E291E0909370
:205C4000A9028093A80288E491E09093AB028093AA028EE491E09093AD028093AC02109258
:205C6000AE021092AF021092B0021092B10280E09DE7A0E0B0E08093B2029093B302A093B2
:205C8000B402B093B5021092B7021092B6021092BE021092BF028FEF9FE79093C5028093D9
:205CA000C4029093C7028093C6029093C9028093C80224E731E03093CB022093CA021092BF
:205CC000CD021092CC021092CE021092CF021092D0021092D1029093D3028093D2029093B5
:205CE000D5028093D4029093D7028093D6023093D9022093D8021092DB021092DA02109233
:205D0000DC021092DD021092DE021092DF021092E0028FEF8093E102B8E1CB2EB2E7DB2EF3
:205D2000B1EBEB2EBFE3FB2EC092E202D092E302E092E402F092E50240E44093E60236E0B0
:205D40003093E70280E090E0A0E0BFE38093E8029093E902A093EA02B093EB028DE99CE950
:205D6000ACE9BDE38093EC029093ED02A093EE02B093EF0288E78093F00280E197E2909313
:205D8000F2028093F1021092F30221E02093F4021092F5021092F6021092F7021092F8025E
:205DA0001092F9021092FA021092FB021092FC021092FD021092FE021092FF0210920003DE
:205DC00080E090E0A0E8BFE38093050390930603A0930703B093080382E080932D0381E0F1
:205DE00090E090932F0380932E0384E0809330031092310310923203109233031092340392
:205E000088EB91E09093360380933503909338038093370390933A038093390310923B03BD
:205E200010923D0310923C0310923F0310923E031092410310924003C0924203D0924303CE
:205E4000E0924403F0924503409346033093470348E152E761E37FE3409348035093490341
:205E600060934A0370934B0330E830934C0337E030934D0310925E0320935F031092600320
:205E8000109263039093670380936603109268031092690310926A0310926B0310926C03A6
:205EA00010926D0310926E0320936F0388EA92E09093DE018093DD018CEF8093DF0181E2F0
:205EC0008093E00180E28093E10181E88093E20184E08093E3018CE38093E40189ED91E06F
:205EE0009093C1028093C00288E190E00E94C43728E0EAE1F1E0DC0101900D922A95E1F729
:205F0000DC0118961C92189719961C92FC013A962CE0DF011D922A95E9F72FEFFC01228771
:205F2000208B2CEA32E02115310519F4178A168A02C0378B268B9093BB028093BA0288E088
:205F400090E00E94C4378C01FC01118212821382158214821782168260E2F62EF08283E055
:205F600090E00E94C4376C0160E20E946D0ED8011796DC92CE92169780E691E015969C9396
:205F80008E93149760E0C8010E94A2131093BD020093BC0285E090E00E94C4378C0180E0C3
:205FA00097E3A0E0B0E0F80180839183A283B3831482F092840180918401815080930401D0
:205FC00083E090E00E94C4376C0160E20E946D0ED092F201C092F10183E090E00E94C4377C
:205FE0006C0160E20E946D0ED0928601C09285011093C3020093C2028BE090E00E94C437DD
:206000008C01DC0112961C92129713961C92139781E015968C93159716968C93169717961A
:206020008C93179719961C921E9218971A961C921A97FC928FE111968C93119778E0E72EEF
:206040001496EC9283E090E00E94C4376C0160E20E946D0EF801D186C086109362030093AB
:20606000610380E09DE7A0E0B0E08093B2029093B302A093B402B093B5022091B60230911C
:20608000B702A0E0BDE70E949D33AA27BB278093AE029093AF02A093B002B093B1028FE815
:2060A00090E00E94C437FC018DE78083118214821582168217821086128611861486138676
:2060C00015868F01025F1F4F80E8D8011D928A95E9F7DF01A257BF4F1C9288EA92E0938348
:2060E0008283F093B902E093B80280E490E00E94C437FC01128282E0838381E090E09583DD
:20610000848384E0868317821086118680E18487158616869F01215F3F4FD901482E1D92F5
:206120004A94E9F7205F3F4FD901482E1D924A94E9F7205F3F4FD9011D928A95E9F717AE7D
:206140008AEA92E09183808313870287F0935D03E0935C0384E090E00E94C437FC0110826A
:206160001182F382E28290936503809364030091DB011091DC0187ED91E0F80191838083CE
:20618000F8942A9A229A8CB580618CBD8CB580648CBD239A259A8DB581608DBD8CB58D7FE4
:2061A0008CBD8CB58E7F8CBD8CB58F7D8CBD8CB5877F8CBD8CB58B7F8CBDE12CF12CFAE041
:2061C000DF2EA8E0CA2E6E2D2A98C701880F991F80648EBD0DB407FEFDCFDEBC0DB407FE9D
:2061E000FDCFCEBC0DB407FEFDCF2A9A20E030E040E0C8010E946415FFEFEF1AFF0A23E0DC
:20620000E216F10401F77801F801B29680E090E067E880937C0020917C00206420937C0051
:2062200020917C00206220937C0060937A0020917A00206420937A0020917A0026FDFCCF1E
:2062400020917900AC0141575E4FDA012C93D70159961C921E925897AF0148505109DA01F7
:206260001C924F5F5F4FDA012C93D7015D961C921E925C974D5F5F4FDA012C939F01235057
:206280003109D9011C922F5F3F4FD9011C922F5F3F4FD9011C9210820196BBE0EB0EF11C2A
:2062A0003B968630910509F0B4CF10927C0080917C00806480937C0080917C0080628093A5
:2062C0007C008FE880937A0080917A00806480937A0020E030E0812C912C5401839440E03C
:2062E00050E0FA01E20FF31FEC5EF34F8491CAB02401350104C0440C551C661C771C8A9541
:20630000D2F7D301C20180959095A095B095D12CE12CF12C8C219D21AE21BF218AB9E49170
:206320006BB1D501C40104C0880F991FAA1FBB1FEA95D2F7862B8BB94130510519F041E0C2
:2063400050E0CFCF2E5F3F4F2430310541F6209828982198299856985E98539A5B98F3B03A
:20636000F0948F2D817080938C011A82198220ED37E03C832B831F82198618861A861B8665
:206380001C8694E19D871E868D838E838EE0FE013196D801A65ABF4F01900D928A95E1F7BB
:2063A000CE0101960E94B10EF801E25AFF4F8081980129553F4F6901813011F4D9018C93D4
:2063C000F1FA882780F980938D011A82198290EDE92E97E0F92EFC82EB821F8219861886D7
:2063E0001A861B861C8624E1B22EBD861E868D838E838EE0FE013196D801A859BF4F019020
:206400000D928A95E1F7CE0101960E94B10E89B1809586FB882780F980938E011A8219824E
:20642000FC82EB821F82198618861A861B861C86BD861E868D838E838EE0FE013196D8019B
:20644000AA58BF4F01900D928A95E1F7CE0101960E94B10E80916B00816080936B00809152
:206460006B00826080936B00D89A8091680081608093680080916D00846080936D00809117
:206480006D00806180936D0080916D00806280936D0080916D00806480936D0080916D00EE
:2064A000806880936D00DA9A8091680084608093680078948FEF93E00E941F33F801E85501
:2064C000FF4F807880838FEF93E00E941F33F801E655FF4F807480838FEF93E00E941F3330
:2064E0008F70F801E755FF4F8083F6019081992301F191E0D80119969C93199718969C91AE
:206500001897891724F0915012969C9302C0F8018283F801EC56FF4F108282E0D801539661
:206520008C9353971D961C923A961082C8010E9479152E960FB6F894DEBF0FBECDBFDF911B
:20654000CF911F910F91FF90EF90DF90CF90BF90AF909F908F907F906F905F904F9008955A
:2065600004970C9495298F929F92AF92BF92CF92DF92EF92FF92CF93DF93EC0168817981B6
:206580008A819B81611571058105910521F464E279ED8BE597E02DE133EF41E050E00E9401
:2065A000493349015A019B01AC01A7EAB1E40E9468336B017C01ACEEB4EFA50194010E940B
:2065C0007633DC01CB018C0D9D1DAE1DBF1DB7FF03C00197A109B04888839983AA83BB832A
:2065E0009F77DF91CF91FF90EF90DF90CF90BF90AF909F908F9008950E94B332089588E0D4
:2066000091E00E94B3320895A0E0B0E08093080190930901A0930A01B0930B010895DC0185
:20662000CB01FC01F999FECF06C0F2BDE1BDF89A319600B40D9241505040B8F70895F99974
:20664000FECF92BD81BDF89A992780B50895DC01A40FB51F4150504048F0CB01840F951FEC
:206660002E910E94383341505040D0F70895262FF999FECF92BD81BDF89A019700B4021692
:2066800039F01FBA20BD0FB6F894FA9AF99A0FBE0895052E97FB1EF400940E94603357FD45
:2066A00007D00E947B3307FC03D04EF40C94603350954095309521953F4F4F4F5F4F0895BC
:2066C00090958095709561957F4F8F4F9F4F08950E949D33A59F900DB49F900DA49F800D3B
:2066E000911D11240895B7FF0C9468330E946833821B930B0895A1E21A2EAA1BBB1BFD01B0
:206700000DC0AA1FBB1FEE1FFF1FA217B307E407F50720F0A21BB30BE40BF50B661F771FEF
:20672000881F991F1A9469F760957095809590959B01AC01BD01CF010895A29FB001B39F00
:20674000C001A39F700D811D1124911DB29F700D811D1124911D08955058BB27AA270E944F
:20676000C4330C94A6350E946D3538F00E94743520F039F49F3F19F426F40C9443350EF494
:20678000E095E7FB0C943D35E92F0E94CB3558F3BA17620773078407950720F079F4A6F598
:2067A0000C94ED350EF4E0950B2EBA2FA02D0B01B90190010C01CA01A0011124FF27591B12
:2067C00099F0593F50F4503E68F11A16F040A22F232F342F4427585FF3CF46953795279540
:2067E000A795F0405395C9F77EF41F16BA0B620B730B840BBAF09150A1F0FF0FBB1F661F16
:20680000771F881FC2F70EC0BA0F621F731F841F48F4879577956795B795F7959E3F08F028
:20682000B0CF9395880F08F09927EE0F9795879508950E947D35E3950C94B7350E94323420
:206840000C94A6350E94743558F00E946D3540F029F45F3F29F00C943D3551110C94EE35AB
:206860000C9443350E94CB3568F39923B1F3552391F3951B550BBB27AA2762177307840766
:2068800038F09F5F5F4F220F331F441FAA1FA9F335D00E2E3AF0E0E832D091505040E695B8
:2068A000001CCAF72BD0FE2F29D0660F771F881FBB1F261737074807AB07B0E809F0BB0B7B
:2068C000802DBF01FF2793585F4F3AF09E3F510578F00C943D350C94EE355F3FE4F3983EA7
:2068E000D4F3869577956795B795F7959F5FC9F7880F911D9695879597F90895E1E0660F29
:20690000771F881FBB1F621773078407BA0720F0621B730B840BBA0BEE1F88F7E095089524
:2069200029F416F00C943D350C94ED350C9443350E94D335A8F39638A0F707F80F92E89482
