:100000000C9435000C945D000C945D000C945D0024
:100010000C945D000C945D000C945D000C945D00EC
:100020000C945D000C945D000C945D000C945D00DC
:100030000C945D000C945D000C945D000C945D00CC
:100040000C94ED000C945D000C9402030C943403AA
:100050000C945D000C945D000C945D000C945D00AC
:100060000C945D000C945D00640311241FBECFEF5F
:10007000D8E0DEBFCDBF11E0A0E0B1E0E0E3F8E002
:1000800002C005900D92A031B107D9F721E0A0E19F
:10009000B1E001C01D92AB3BB207E1F710E0CAE648
:1000A000D0E004C02297FE010E940404C836D107A4
:1000B000C9F70E94A8030C9416040C940000DC01FC
:1000C000ED91FC910190F081E02D099464EF71E0D5
:1000D00080E090E00E945A0126E040E855E260E0AE
:1000E00070E08EE191E00E94A00210921301109244
:1000F000120160E08EE191E00C943B02CF93DF931C
:100100008EE191E00E94BD01181619060CF062C044
:100110008EE191E00E94D601C82FD82F8091120164
:10012000811109C0C03171F16FEF70E08EE191E093
:100130000E945F0027C0813029F410921001C09303
:10014000110120C0823051F4209110013091110131
:100150002C2B309311012093100114C09CEF980FA9
:10016000903180F420911001309111012450310917
:10017000280F311D2F3F83E0380721F06C2FC90174
:100180000E94080490911201809114019431E1F4CD
:100190008195809314018D1731F06EEF70E08EE140
:1001A00091E00E945F0060911301603498F46F5FEA
:1001B0006093130110921201109214018EE191E0EC
:1001C000DF91CF910C943B029F5F90931201C80F77
:1001D000C0931401DF91CF9108951F920F920FB633
:1001E0000F9211242F933F938F939F93AF93BF93BD
:1001F0008091160190911701A0911801B0911901F9
:100200003091150123E0230F2D3720F40196A11D15
:10021000B11D05C026E8230F0296A11DB11D209334
:1002200015018093160190931701A0931801B093C4
:10023000190180911A0190911B01A0911C01B091AC
:100240001D010196A11DB11D80931A0190931B0100
:10025000A0931C01B0931D01BF91AF919F918F910D
:100260003F912F910F900FBE0F901F9018953FB7A1
:10027000F89480911A0190911B01A0911C01B091FA
:100280001D0126B5A89B05C02F3F19F00196A11DA1
:10029000B11D3FBF6627782F892F9A2F620F711DDE
:1002A000811D911D42E0660F771F881F991F4A9597
:1002B000D1F70895CF92DF92EF92FF92CF93DF9321
:1002C0006B017C010E943701EB01C114D104E104F0
:1002D000F10489F00E94DF030E9437016C1B7D0B43
:1002E000683E734090F381E0C81AD108E108F10834
:1002F000C851DC4FEACFDF91CF91FF90EF90DF90B4
:10030000CF900895789484B5826084BD84B581606F
:1003100084BD85B5826085BD85B5816085BDEEE60D
:10032000F0E0808181608083E1E8F0E010828081EC
:1003300082608083808181608083E0E8F0E080815A
:1003400081608083E1EBF0E0808184608083E0EB7A
:10035000F0E0808181608083EAE7F0E08081846062
:1003600080838081826080838081816080838081BE
:10037000806880831092C1000895FC01818D228DD8
:1003800090E0805C9F4F821B91098F73992708959D
:10039000FC01918D828D981731F0828DE80FF11D4F
:1003A000858D90E008958FEF9FEF0895FC01918D6A
:1003B000828D981761F0828DDF01A80FB11D5D96C7
:1003C0008C91928D9F5F9F73928F90E008958FEF35
:1003D0009FEF08958AE593E0892B49F080E090E053
:1003E000892B29F00E945A0381110C940000089572
:1003F000FC01848DDF01A80FB11DA35ABF4F2C91C2
:10040000848D90E001968F739927848FA689B78990
:100410002C93A089B1898C9180648C93938D848D69
:10042000981306C00288F389E02D80818F7D808338
:100430000895CF93DF93EC01888D8823C9F0EA8972
:10044000FB89808185FD05C0A889B9898C9186FDCD
:100450000FC00FB607FCF5CF808185FFF2CFA889CA
:10046000B9898C9185FFEDCFCE010E94F801E7CFCD
:10047000DF91CF910895CF92DF92FF920F931F9358
:10048000CF93DF931F92CDB7DEB76C0181E0D60129
:1004900058968C9358975B969C915B975C968C9141
:1004A0005C97981307C05096ED91FC91519780810D
:1004B00085FD2EC0F601038D10E00F5F1F4F0F73F7
:1004C0001127F02EF601848DF81211C00FB607FC2B
:1004D000F9CFD6015096ED91FC915197808185FF1F
:1004E000F1CFC60169830E94F8016981EBCF838D4A
:1004F000E80FF11DE35AFF4F6083D6015B960C9322
:100500005B975296ED91FC915397808180620CC06D
:10051000D6015696ED91FC91579760835096ED91D8
:10052000FC91519780818064808381E090E00F90FE
:10053000DF91CF911F910F91FF90DF90CF900895A1
:10054000BF92CF92DF92EF92FF92CF93DF93EC01B5
:100550006A017B01B22EE889F98982E08083411526
:1005600081EE580761057105A1F060E079E08DE347
:1005700090E0A70196010E94E00321503109410952
:1005800051095695479537952795211580E13807EC
:1005900098F0E889F989108260E874E88EE190E0CB
:1005A000A70196010E94E003215031094109510938
:1005B0005695479537952795EC85FD853083EE85D3
:1005C000FF852083188EEC89FD89B082EA89FB893A
:1005D000808180618083EA89FB8980818860808353
:1005E000EA89FB89808180688083EA89FB89808130
:1005F0008F7D8083DF91CF91FF90EF90DF90CF9040
:10060000BF9008951F920F920FB60F9211242F934F
:100610008F939F93EF93FF93E0912E01F0912F0121
:100620008081E0913401F091350182FD12C090810A
:10063000809137018F5F8F7320913801821751F0BD
:10064000E0913701F0E0E25EFE4F958F8093370135
:1006500001C08081FF91EF919F918F912F910F9019
:100660000FBE0F901F9018951F920F920FB60F920A
:1006700011242F933F934F935F936F937F938F93A7
:100680009F93AF93BF93EF93FF938EE191E00E940E
:10069000F801FF91EF91BF91AF919F918F917F9161
:1006A0006F915F914F913F912F910F900FBE0F90DF
:1006B0001F9018958EE191E00E94BD0121E0892BE9
:1006C00009F420E0822F0895109221011092200158
:1006D00088EE93E0A0E0B0E08093220190932301A4
:1006E000A0932401B093250184E091E090931F0131
:1006F00080931E0185EC90E090932B0180932A015A
:1007000084EC90E090932D0180932C0180EC90E09C
:1007100090932F0180932E0181EC90E09093310112
:100720008093300182EC90E090933301809332010A
:1007300086EC90E09093350180933401109237015C
:10074000109238011092390110923A0108950895DB
:100750000E9482010E94A7030E946600CAEED1E0B7
:100760000E947E002097E1F30E94EA01F9CFCF9228
:10077000DF92EF92FF920F931F93CF93DF937C0151
:100780006A01EB0100E010E00C151D0571F06991A4
:10079000D701ED91FC910190F081E02DC701099501
:1007A000892B19F00F5F1F4FEFCFC801DF91CF9159
:1007B0001F910F91FF90EF90DF90CF9008950895D3
:1007C000A1E21A2EAA1BBB1BFD010DC0AA1FBB1F55
:1007D000EE1FFF1FA217B307E407F50720F0A21BC7
:1007E000B30BE40BF50B661F771F881F991F1A9434
:1007F00069F760957095809590959B01AC01BD015E
:10080000CF010895EE0FFF1F0590F491E02D09949C
:10081000262FF999FECF1FBA92BD81BD20BD0FB61C
:10082000F894FA9AF99A0FBE01960895F894FFCFBA
:10083000000000003B02B703BD01D601C801190248
:00000001FF
